{
  "address": "0x85E30bf2C1b753cD3D380B345e5F212589b0317A",
  "abi": [
    {
      "inputs": [
        {
          "internalType": "address",
          "name": "priceFeedAddress",
          "type": "address"
        },
        {
          "internalType": "string",
          "name": "lowSvg",
          "type": "string"
        },
        {
          "internalType": "string",
          "name": "highSvg",
          "type": "string"
        }
      ],
      "stateMutability": "nonpayable",
      "type": "constructor"
    },
    {
      "anonymous": false,
      "inputs": [
        {
          "indexed": true,
          "internalType": "address",
          "name": "owner",
          "type": "address"
        },
        {
          "indexed": true,
          "internalType": "address",
          "name": "approved",
          "type": "address"
        },
        {
          "indexed": true,
          "internalType": "uint256",
          "name": "tokenId",
          "type": "uint256"
        }
      ],
      "name": "Approval",
      "type": "event"
    },
    {
      "anonymous": false,
      "inputs": [
        {
          "indexed": true,
          "internalType": "address",
          "name": "owner",
          "type": "address"
        },
        {
          "indexed": true,
          "internalType": "address",
          "name": "operator",
          "type": "address"
        },
        {
          "indexed": false,
          "internalType": "bool",
          "name": "approved",
          "type": "bool"
        }
      ],
      "name": "ApprovalForAll",
      "type": "event"
    },
    {
      "anonymous": false,
      "inputs": [
        {
          "indexed": true,
          "internalType": "uint256",
          "name": "tokenId",
          "type": "uint256"
        },
        {
          "indexed": false,
          "internalType": "int256",
          "name": "highValue",
          "type": "int256"
        }
      ],
      "name": "NftMinted",
      "type": "event"
    },
    {
      "anonymous": false,
      "inputs": [
        {
          "indexed": true,
          "internalType": "address",
          "name": "from",
          "type": "address"
        },
        {
          "indexed": true,
          "internalType": "address",
          "name": "to",
          "type": "address"
        },
        {
          "indexed": true,
          "internalType": "uint256",
          "name": "tokenId",
          "type": "uint256"
        }
      ],
      "name": "Transfer",
      "type": "event"
    },
    {
      "inputs": [
        {
          "internalType": "uint256",
          "name": "tokenId",
          "type": "uint256"
        }
      ],
      "name": "SelectUri",
      "outputs": [
        {
          "internalType": "string",
          "name": "",
          "type": "string"
        }
      ],
      "stateMutability": "view",
      "type": "function"
    },
    {
      "inputs": [
        {
          "internalType": "address",
          "name": "to",
          "type": "address"
        },
        {
          "internalType": "uint256",
          "name": "tokenId",
          "type": "uint256"
        }
      ],
      "name": "approve",
      "outputs": [],
      "stateMutability": "nonpayable",
      "type": "function"
    },
    {
      "inputs": [
        {
          "internalType": "address",
          "name": "owner",
          "type": "address"
        }
      ],
      "name": "balanceOf",
      "outputs": [
        {
          "internalType": "uint256",
          "name": "",
          "type": "uint256"
        }
      ],
      "stateMutability": "view",
      "type": "function"
    },
    {
      "inputs": [
        {
          "internalType": "uint256",
          "name": "tokenId",
          "type": "uint256"
        }
      ],
      "name": "getApproved",
      "outputs": [
        {
          "internalType": "address",
          "name": "",
          "type": "address"
        }
      ],
      "stateMutability": "view",
      "type": "function"
    },
    {
      "inputs": [],
      "name": "getHighImageURI",
      "outputs": [
        {
          "internalType": "string",
          "name": "",
          "type": "string"
        }
      ],
      "stateMutability": "view",
      "type": "function"
    },
    {
      "inputs": [],
      "name": "getJsonPrefix",
      "outputs": [
        {
          "internalType": "string",
          "name": "",
          "type": "string"
        }
      ],
      "stateMutability": "pure",
      "type": "function"
    },
    {
      "inputs": [],
      "name": "getLastPrice",
      "outputs": [
        {
          "internalType": "int256",
          "name": "",
          "type": "int256"
        }
      ],
      "stateMutability": "view",
      "type": "function"
    },
    {
      "inputs": [],
      "name": "getLowImageURI",
      "outputs": [
        {
          "internalType": "string",
          "name": "",
          "type": "string"
        }
      ],
      "stateMutability": "view",
      "type": "function"
    },
    {
      "inputs": [],
      "name": "getSvgPrefix",
      "outputs": [
        {
          "internalType": "string",
          "name": "",
          "type": "string"
        }
      ],
      "stateMutability": "pure",
      "type": "function"
    },
    {
      "inputs": [],
      "name": "getTokenCounter",
      "outputs": [
        {
          "internalType": "uint256",
          "name": "",
          "type": "uint256"
        }
      ],
      "stateMutability": "view",
      "type": "function"
    },
    {
      "inputs": [
        {
          "internalType": "address",
          "name": "owner",
          "type": "address"
        },
        {
          "internalType": "address",
          "name": "operator",
          "type": "address"
        }
      ],
      "name": "isApprovedForAll",
      "outputs": [
        {
          "internalType": "bool",
          "name": "",
          "type": "bool"
        }
      ],
      "stateMutability": "view",
      "type": "function"
    },
    {
      "inputs": [
        {
          "internalType": "int256",
          "name": "highValue",
          "type": "int256"
        }
      ],
      "name": "mintNft",
      "outputs": [],
      "stateMutability": "nonpayable",
      "type": "function"
    },
    {
      "inputs": [],
      "name": "name",
      "outputs": [
        {
          "internalType": "string",
          "name": "",
          "type": "string"
        }
      ],
      "stateMutability": "view",
      "type": "function"
    },
    {
      "inputs": [
        {
          "internalType": "uint256",
          "name": "tokenId",
          "type": "uint256"
        }
      ],
      "name": "ownerOf",
      "outputs": [
        {
          "internalType": "address",
          "name": "",
          "type": "address"
        }
      ],
      "stateMutability": "view",
      "type": "function"
    },
    {
      "inputs": [
        {
          "internalType": "uint256",
          "name": "",
          "type": "uint256"
        }
      ],
      "name": "s_tokenIdToHighValue",
      "outputs": [
        {
          "internalType": "int256",
          "name": "",
          "type": "int256"
        }
      ],
      "stateMutability": "view",
      "type": "function"
    },
    {
      "inputs": [
        {
          "internalType": "address",
          "name": "from",
          "type": "address"
        },
        {
          "internalType": "address",
          "name": "to",
          "type": "address"
        },
        {
          "internalType": "uint256",
          "name": "tokenId",
          "type": "uint256"
        }
      ],
      "name": "safeTransferFrom",
      "outputs": [],
      "stateMutability": "nonpayable",
      "type": "function"
    },
    {
      "inputs": [
        {
          "internalType": "address",
          "name": "from",
          "type": "address"
        },
        {
          "internalType": "address",
          "name": "to",
          "type": "address"
        },
        {
          "internalType": "uint256",
          "name": "tokenId",
          "type": "uint256"
        },
        {
          "internalType": "bytes",
          "name": "data",
          "type": "bytes"
        }
      ],
      "name": "safeTransferFrom",
      "outputs": [],
      "stateMutability": "nonpayable",
      "type": "function"
    },
    {
      "inputs": [
        {
          "internalType": "address",
          "name": "operator",
          "type": "address"
        },
        {
          "internalType": "bool",
          "name": "approved",
          "type": "bool"
        }
      ],
      "name": "setApprovalForAll",
      "outputs": [],
      "stateMutability": "nonpayable",
      "type": "function"
    },
    {
      "inputs": [
        {
          "internalType": "bytes4",
          "name": "interfaceId",
          "type": "bytes4"
        }
      ],
      "name": "supportsInterface",
      "outputs": [
        {
          "internalType": "bool",
          "name": "",
          "type": "bool"
        }
      ],
      "stateMutability": "view",
      "type": "function"
    },
    {
      "inputs": [
        {
          "internalType": "string",
          "name": "svg",
          "type": "string"
        }
      ],
      "name": "svgToImageURI",
      "outputs": [
        {
          "internalType": "string",
          "name": "",
          "type": "string"
        }
      ],
      "stateMutability": "pure",
      "type": "function"
    },
    {
      "inputs": [],
      "name": "symbol",
      "outputs": [
        {
          "internalType": "string",
          "name": "",
          "type": "string"
        }
      ],
      "stateMutability": "view",
      "type": "function"
    },
    {
      "inputs": [
        {
          "internalType": "uint256",
          "name": "tokenId",
          "type": "uint256"
        }
      ],
      "name": "tokenURI",
      "outputs": [
        {
          "internalType": "string",
          "name": "",
          "type": "string"
        }
      ],
      "stateMutability": "view",
      "type": "function"
    },
    {
      "inputs": [
        {
          "internalType": "address",
          "name": "from",
          "type": "address"
        },
        {
          "internalType": "address",
          "name": "to",
          "type": "address"
        },
        {
          "internalType": "uint256",
          "name": "tokenId",
          "type": "uint256"
        }
      ],
      "name": "transferFrom",
      "outputs": [],
      "stateMutability": "nonpayable",
      "type": "function"
    }
  ],
  "transactionHash": "0xb6e1b35b50428957b0f93c18e8904ee30f7211645b1b0f78e8f1bae0e5803651",
  "args": [
    "0x8A753747A1Fa494EC906cE90E9f37563A8AF630e",
    "<?xml version=\"1.0\" standalone=\"no\"?>\n<svg width=\"1024px\" height=\"1024px\" viewBox=\"0 0 1024 1024\" xmlns=\"http://www.w3.org/2000/svg\">\n  <path fill=\"#333\" d=\"M512 64C264.6 64 64 264.6 64 512s200.6 448 448 448 448-200.6 448-448S759.4 64 512 64zm0 820c-205.4 0-372-166.6-372-372s166.6-372 372-372 372 166.6 372 372-166.6 372-372 372z\"/>\n  <path fill=\"#E6E6E6\" d=\"M512 140c-205.4 0-372 166.6-372 372s166.6 372 372 372 372-166.6 372-372-166.6-372-372-372zM288 421a48.01 48.01 0 0 1 96 0 48.01 48.01 0 0 1-96 0zm376 272h-48.1c-4.2 0-7.8-3.2-8.1-7.4C604 636.1 562.5 597 512 597s-92.1 39.1-95.8 88.6c-.3 4.2-3.9 7.4-8.1 7.4H360a8 8 0 0 1-8-8.4c4.4-84.3 74.5-151.6 160-151.6s155.6 67.3 160 151.6a8 8 0 0 1-8 8.4zm24-224a48.01 48.01 0 0 1 0-96 48.01 48.01 0 0 1 0 96z\"/>\n  <path fill=\"#333\" d=\"M288 421a48 48 0 1 0 96 0 48 48 0 1 0-96 0zm224 112c-85.5 0-155.6 67.3-160 151.6a8 8 0 0 0 8 8.4h48.1c4.2 0 7.8-3.2 8.1-7.4 3.7-49.5 45.3-88.6 95.8-88.6s92 39.1 95.8 88.6c.3 4.2 3.9 7.4 8.1 7.4H664a8 8 0 0 0 8-8.4C667.6 600.3 597.5 533 512 533zm128-112a48 48 0 1 0 96 0 48 48 0 1 0-96 0z\"/>\n</svg>",
    "<svg viewBox=\"0 0 200 200\" width=\"400\"  height=\"400\" xmlns=\"http://www.w3.org/2000/svg\">\n  <circle cx=\"100\" cy=\"100\" fill=\"yellow\" r=\"78\" stroke=\"black\" stroke-width=\"3\"/>\n  <g class=\"eyes\">\n    <circle cx=\"61\" cy=\"82\" r=\"12\"/>\n    <circle cx=\"127\" cy=\"82\" r=\"12\"/>\n  </g>\n  <path d=\"m136.81 116.53c.69 26.17-64.11 42-81.52-.73\" style=\"fill:none; stroke: black; stroke-width: 3;\"/>\n</svg>"
  ],
  "numDeployments": 1,
  "solcInputHash": "dabcf693ad59f4bb0d1d3dfa3f67aa0c",
  "bytecode": "0x60a06040523480156200001157600080fd5b5060405162003a3438038062003a3483398181016040528101906200003791906200064c565b6040518060400160405280600f81526020017f44796e616d696320535647204e465400000000000000000000000000000000008152506040518060400160405280600381526020017f44534e00000000000000000000000000000000000000000000000000000000008152508160009080519060200190620000bb9291906200039a565b508060019080519060200190620000d49291906200039a565b5050508273ffffffffffffffffffffffffffffffffffffffff1660808173ffffffffffffffffffffffffffffffffffffffff1681525050600060068190555062000124826200016e60201b60201c565b600790805190602001906200013b9291906200039a565b506200014d816200016e60201b60201c565b60089080519060200190620001649291906200039a565b5050505062000937565b60606000620001a98360405160200162000189919062000733565b6040516020818303038152906040526200020c60201b620010731760201c565b90506040518060400160405280601a81526020017f646174613a696d6167652f7376672b786d6c3b6261736536342c00000000000081525081604051602001620001f59291906200074c565b604051602081830303815290604052915050919050565b6060600082511415620002315760405180602001604052806000815250905062000395565b6000604051806060016040528060408152602001620039f46040913990506000600360028551620002639190620007ad565b6200026f919062000839565b60046200027d919062000871565b90506000602082620002909190620007ad565b67ffffffffffffffff811115620002ac57620002ab620004de565b5b6040519080825280601f01601f191660200182016040528015620002df5781602001600182028036833780820191505090505b509050818152600183018586518101602084015b8183101562000350576003830192508251603f8160121c168501518253600182019150603f81600c1c168501518253600182019150603f8160061c168501518253600182019150603f8116850151825360018201915050620002f3565b6003895106600181146200036d57600281146200037e5762000389565b613d3d60f01b600283035262000389565b603d60f81b60018303525b50505050508093505050505b919050565b828054620003a89062000901565b90600052602060002090601f016020900481019282620003cc576000855562000418565b82601f10620003e757805160ff191683800117855562000418565b8280016001018555821562000418579182015b8281111562000417578251825591602001919060010190620003fa565b5b5090506200042791906200042b565b5090565b5b80821115620004465760008160009055506001016200042c565b5090565b6000604051905090565b600080fd5b600080fd5b600073ffffffffffffffffffffffffffffffffffffffff82169050919050565b60006200048b826200045e565b9050919050565b6200049d816200047e565b8114620004a957600080fd5b50565b600081519050620004bd8162000492565b92915050565b600080fd5b600080fd5b6000601f19601f8301169050919050565b7f4e487b7100000000000000000000000000000000000000000000000000000000600052604160045260246000fd5b6200051882620004cd565b810181811067ffffffffffffffff821117156200053a5762000539620004de565b5b80604052505050565b60006200054f6200044a565b90506200055d82826200050d565b919050565b600067ffffffffffffffff82111562000580576200057f620004de565b5b6200058b82620004cd565b9050602081019050919050565b60005b83811015620005b85780820151818401526020810190506200059b565b83811115620005c8576000848401525b50505050565b6000620005e5620005df8462000562565b62000543565b905082815260208101848484011115620006045762000603620004c8565b5b6200061184828562000598565b509392505050565b600082601f830112620006315762000630620004c3565b5b815162000643848260208601620005ce565b91505092915050565b60008060006060848603121562000668576200066762000454565b5b60006200067886828701620004ac565b935050602084015167ffffffffffffffff8111156200069c576200069b62000459565b5b620006aa8682870162000619565b925050604084015167ffffffffffffffff811115620006ce57620006cd62000459565b5b620006dc8682870162000619565b9150509250925092565b600081519050919050565b600081905092915050565b60006200070982620006e6565b620007158185620006f1565b93506200072781856020860162000598565b80840191505092915050565b6000620007418284620006fc565b915081905092915050565b60006200075a8285620006fc565b9150620007688284620006fc565b91508190509392505050565b6000819050919050565b7f4e487b7100000000000000000000000000000000000000000000000000000000600052601160045260246000fd5b6000620007ba8262000774565b9150620007c78362000774565b9250827fffffffffffffffffffffffffffffffffffffffffffffffffffffffffffffffff03821115620007ff57620007fe6200077e565b5b828201905092915050565b7f4e487b7100000000000000000000000000000000000000000000000000000000600052601260045260246000fd5b6000620008468262000774565b9150620008538362000774565b9250826200086657620008656200080a565b5b828204905092915050565b60006200087e8262000774565b91506200088b8362000774565b9250817fffffffffffffffffffffffffffffffffffffffffffffffffffffffffffffffff0483118215151615620008c757620008c66200077e565b5b828202905092915050565b7f4e487b7100000000000000000000000000000000000000000000000000000000600052602260045260246000fd5b600060028204905060018216806200091a57607f821691505b60208210811415620009315762000930620008d2565b5b50919050565b6080516130a1620009536000396000610f1e01526130a16000f3fe608060405234801561001057600080fd5b506004361061014d5760003560e01c80636352211e116100c3578063c0a8d5ac1161007c578063c0a8d5ac146103b0578063c87b56dd146103ce578063d77843c5146103fe578063d8cf24fd1461041c578063e425aded1461043a578063e985e9c51461046a5761014d565b80636352211e146102dc5780636e02007d1461030c57806370a082311461032a57806395d89b411461035a578063a22cb46514610378578063b88d4fde146103945761014d565b80631e930812116101155780631e9308121461020a57806323b872dd1461022657806330d871c6146102425780633d29af411461027257806342842e0e1461029057806345be41a5146102ac5761014d565b806301ffc9a71461015257806304c11efd1461018257806306fdde03146101a0578063081812fc146101be578063095ea7b3146101ee575b600080fd5b61016c60048036038101906101679190611d16565b61049a565b6040516101799190611d5e565b60405180910390f35b61018a61057c565b6040516101979190611e12565b60405180910390f35b6101a86105b9565b6040516101b59190611e12565b60405180910390f35b6101d860048036038101906101d39190611e6a565b61064b565b6040516101e59190611ed8565b60405180910390f35b61020860048036038101906102039190611f1f565b610691565b005b610224600480360381019061021f9190611f95565b6107a9565b005b610240600480360381019061023b9190611fc2565b610826565b005b61025c6004803603810190610257919061214a565b610886565b6040516102699190611e12565b60405180910390f35b61027a610913565b6040516102879190611e12565b60405180910390f35b6102aa60048036038101906102a59190611fc2565b610950565b005b6102c660048036038101906102c19190611e6a565b610970565b6040516102d39190611e12565b60405180910390f35b6102f660048036038101906102f19190611e6a565b610abf565b6040516103039190611ed8565b60405180910390f35b610314610b71565b60405161032191906121a2565b60405180910390f35b610344600480360381019061033f91906121bd565b610b7b565b60405161035191906121a2565b60405180910390f35b610362610c33565b60405161036f9190611e12565b60405180910390f35b610392600480360381019061038d9190612216565b610cc5565b005b6103ae60048036038101906103a991906122f7565b610cdb565b005b6103b8610d3d565b6040516103c59190611e12565b60405180910390f35b6103e860048036038101906103e39190611e6a565b610dcf565b6040516103f59190611e12565b60405180910390f35b610406610e87565b6040516104139190611e12565b60405180910390f35b610424610f19565b6040516104319190612389565b60405180910390f35b610454600480360381019061044f9190611e6a565b610fc7565b6040516104619190612389565b60405180910390f35b610484600480360381019061047f91906123a4565b610fdf565b6040516104919190611d5e565b60405180910390f35b60007f80ac58cd000000000000000000000000000000000000000000000000000000007bffffffffffffffffffffffffffffffffffffffffffffffffffffffff1916827bffffffffffffffffffffffffffffffffffffffffffffffffffffffff1916148061056557507f5b5e139f000000000000000000000000000000000000000000000000000000007bffffffffffffffffffffffffffffffffffffffffffffffffffffffff1916827bffffffffffffffffffffffffffffffffffffffffffffffffffffffff1916145b806105755750610574826111ec565b5b9050919050565b60606040518060400160405280601a81526020017f646174613a696d6167652f7376672b786d6c3b6261736536342c000000000000815250905090565b6060600080546105c890612413565b80601f01602080910402602001604051908101604052809291908181526020018280546105f490612413565b80156106415780601f1061061657610100808354040283529160200191610641565b820191906000526020600020905b81548152906001019060200180831161062457829003601f168201915b5050505050905090565b600061065682611256565b6004600083815260200190815260200160002060009054906101000a900473ffffffffffffffffffffffffffffffffffffffff169050919050565b600061069c82610abf565b90508073ffffffffffffffffffffffffffffffffffffffff168373ffffffffffffffffffffffffffffffffffffffff16141561070d576040517f08c379a0000000000000000000000000000000000000000000000000000000008152600401610704906124b7565b60405180910390fd5b8073ffffffffffffffffffffffffffffffffffffffff1661072c6112a1565b73ffffffffffffffffffffffffffffffffffffffff16148061075b575061075a816107556112a1565b610fdf565b5b61079a576040517f08c379a000000000000000000000000000000000000000000000000000000000815260040161079190612549565b60405180910390fd5b6107a483836112a9565b505050565b6001600660008282546107bc9190612598565b9250508190555080600960006006548152602001908152602001600020819055506107e933600654611362565b6006547f25fe3a996149ce0f27840bd9ec024ac39e95985c0d3974c4fcaaed30903b56788260405161081b9190612389565b60405180910390a250565b6108376108316112a1565b82611380565b610876576040517f08c379a000000000000000000000000000000000000000000000000000000000815260040161086d90612660565b60405180910390fd5b610881838383611415565b505050565b606060006108b28360405160200161089e91906126bc565b604051602081830303815290604052611073565b90506040518060400160405280601a81526020017f646174613a696d6167652f7376672b786d6c3b6261736536342c000000000000815250816040516020016108fc9291906126d3565b604051602081830303815290604052915050919050565b60606040518060400160405280601d81526020017f646174613a6170706c69636174696f6e2f6a736f6e3b6261736536342c000000815250905090565b61096b83838360405180602001604052806000815250610cdb565b505050565b6060600061097c610f19565b905060006007805461098d90612413565b80601f01602080910402602001604051908101604052809291908181526020018280546109b990612413565b8015610a065780601f106109db57610100808354040283529160200191610a06565b820191906000526020600020905b8154815290600101906020018083116109e957829003601f168201915b5050505050905060096000858152602001908152602001600020548212610ab55760088054610a3490612413565b80601f0160208091040260200160405190810160405280929190818152602001828054610a6090612413565b8015610aad5780601f10610a8257610100808354040283529160200191610aad565b820191906000526020600020905b815481529060010190602001808311610a9057829003601f168201915b505050505090505b8092505050919050565b6000806002600084815260200190815260200160002060009054906101000a900473ffffffffffffffffffffffffffffffffffffffff169050600073ffffffffffffffffffffffffffffffffffffffff168173ffffffffffffffffffffffffffffffffffffffff161415610b68576040517f08c379a0000000000000000000000000000000000000000000000000000000008152600401610b5f90612743565b60405180910390fd5b80915050919050565b6000600654905090565b60008073ffffffffffffffffffffffffffffffffffffffff168273ffffffffffffffffffffffffffffffffffffffff161415610bec576040517f08c379a0000000000000000000000000000000000000000000000000000000008152600401610be3906127d5565b60405180910390fd5b600360008373ffffffffffffffffffffffffffffffffffffffff1673ffffffffffffffffffffffffffffffffffffffff168152602001908152602001600020549050919050565b606060018054610c4290612413565b80601f0160208091040260200160405190810160405280929190818152602001828054610c6e90612413565b8015610cbb5780601f10610c9057610100808354040283529160200191610cbb565b820191906000526020600020905b815481529060010190602001808311610c9e57829003601f168201915b5050505050905090565b610cd7610cd06112a1565b838361167c565b5050565b610cec610ce66112a1565b83611380565b610d2b576040517f08c379a0000000000000000000000000000000000000000000000000000000008152600401610d2290612660565b60405180910390fd5b610d37848484846117e9565b50505050565b606060078054610d4c90612413565b80601f0160208091040260200160405190810160405280929190818152602001828054610d7890612413565b8015610dc55780601f10610d9a57610100808354040283529160200191610dc5565b820191906000526020600020905b815481529060010190602001808311610da857829003601f168201915b5050505050905090565b6060610dda82611845565b610e19576040517f08c379a0000000000000000000000000000000000000000000000000000000008152600401610e1090612841565b60405180910390fd5b6000610e2483610970565b9050610e2e610913565b610e5f610e396105b9565b83604051602001610e4b929190612a29565b604051602081830303815290604052611073565b604051602001610e709291906126d3565b604051602081830303815290604052915050919050565b606060088054610e9690612413565b80601f0160208091040260200160405190810160405280929190818152602001828054610ec290612413565b8015610f0f5780601f10610ee457610100808354040283529160200191610f0f565b820191906000526020600020905b815481529060010190602001808311610ef257829003601f168201915b5050505050905090565b6000807f000000000000000000000000000000000000000000000000000000000000000073ffffffffffffffffffffffffffffffffffffffff1663feaf968c6040518163ffffffff1660e01b815260040160a06040518083038186803b158015610f8257600080fd5b505afa158015610f96573d6000803e3d6000fd5b505050506040513d601f19601f82011682018060405250810190610fba9190612ae5565b5050509150508091505090565b60096020528060005260406000206000915090505481565b6000600560008473ffffffffffffffffffffffffffffffffffffffff1673ffffffffffffffffffffffffffffffffffffffff16815260200190815260200160002060008373ffffffffffffffffffffffffffffffffffffffff1673ffffffffffffffffffffffffffffffffffffffff16815260200190815260200160002060009054906101000a900460ff16905092915050565b6060600082511415611096576040518060200160405280600081525090506111e7565b600060405180606001604052806040815260200161302c60409139905060006003600285516110c59190612598565b6110cf9190612b8f565b60046110db9190612bc0565b905060006020826110ec9190612598565b67ffffffffffffffff8111156111055761110461201f565b5b6040519080825280601f01601f1916602001820160405280156111375781602001600182028036833780820191505090505b509050818152600183018586518101602084015b818310156111a6576003830192508251603f8160121c168501518253600182019150603f81600c1c168501518253600182019150603f8160061c168501518253600182019150603f811685015182536001820191505061114b565b6003895106600181146111c057600281146111d0576111db565b613d3d60f01b60028303526111db565b603d60f81b60018303525b50505050508093505050505b919050565b60007f01ffc9a7000000000000000000000000000000000000000000000000000000007bffffffffffffffffffffffffffffffffffffffffffffffffffffffff1916827bffffffffffffffffffffffffffffffffffffffffffffffffffffffff1916149050919050565b61125f81611845565b61129e576040517f08c379a000000000000000000000000000000000000000000000000000000000815260040161129590612743565b60405180910390fd5b50565b600033905090565b816004600083815260200190815260200160002060006101000a81548173ffffffffffffffffffffffffffffffffffffffff021916908373ffffffffffffffffffffffffffffffffffffffff160217905550808273ffffffffffffffffffffffffffffffffffffffff1661131c83610abf565b73ffffffffffffffffffffffffffffffffffffffff167f8c5be1e5ebec7d5bd14f71427d1e84f3dd0314c0f7b2291e5b200ac8c7c3b92560405160405180910390a45050565b61137c8282604051806020016040528060008152506118b1565b5050565b60008061138c83610abf565b90508073ffffffffffffffffffffffffffffffffffffffff168473ffffffffffffffffffffffffffffffffffffffff1614806113ce57506113cd8185610fdf565b5b8061140c57508373ffffffffffffffffffffffffffffffffffffffff166113f48461064b565b73ffffffffffffffffffffffffffffffffffffffff16145b91505092915050565b8273ffffffffffffffffffffffffffffffffffffffff1661143582610abf565b73ffffffffffffffffffffffffffffffffffffffff161461148b576040517f08c379a000000000000000000000000000000000000000000000000000000000815260040161148290612c8c565b60405180910390fd5b600073ffffffffffffffffffffffffffffffffffffffff168273ffffffffffffffffffffffffffffffffffffffff1614156114fb576040517f08c379a00000000000000000000000000000000000000000000000000000000081526004016114f290612d1e565b60405180910390fd5b61150683838361190c565b6115116000826112a9565b6001600360008573ffffffffffffffffffffffffffffffffffffffff1673ffffffffffffffffffffffffffffffffffffffff16815260200190815260200160002060008282546115619190612d3e565b925050819055506001600360008473ffffffffffffffffffffffffffffffffffffffff1673ffffffffffffffffffffffffffffffffffffffff16815260200190815260200160002060008282546115b89190612598565b92505081905550816002600083815260200190815260200160002060006101000a81548173ffffffffffffffffffffffffffffffffffffffff021916908373ffffffffffffffffffffffffffffffffffffffff160217905550808273ffffffffffffffffffffffffffffffffffffffff168473ffffffffffffffffffffffffffffffffffffffff167fddf252ad1be2c89b69c2b068fc378daa952ba7f163c4a11628f55a4df523b3ef60405160405180910390a4611677838383611911565b505050565b8173ffffffffffffffffffffffffffffffffffffffff168373ffffffffffffffffffffffffffffffffffffffff1614156116eb576040517f08c379a00000000000000000000000000000000000000000000000000000000081526004016116e290612dbe565b60405180910390fd5b80600560008573ffffffffffffffffffffffffffffffffffffffff1673ffffffffffffffffffffffffffffffffffffffff16815260200190815260200160002060008473ffffffffffffffffffffffffffffffffffffffff1673ffffffffffffffffffffffffffffffffffffffff16815260200190815260200160002060006101000a81548160ff0219169083151502179055508173ffffffffffffffffffffffffffffffffffffffff168373ffffffffffffffffffffffffffffffffffffffff167f17307eab39ab6107e8899845ad3d59bd9653f200f220920489ca2b5937696c31836040516117dc9190611d5e565b60405180910390a3505050565b6117f4848484611415565b61180084848484611916565b61183f576040517f08c379a000000000000000000000000000000000000000000000000000000000815260040161183690612e50565b60405180910390fd5b50505050565b60008073ffffffffffffffffffffffffffffffffffffffff166002600084815260200190815260200160002060009054906101000a900473ffffffffffffffffffffffffffffffffffffffff1673ffffffffffffffffffffffffffffffffffffffff1614159050919050565b6118bb8383611aad565b6118c86000848484611916565b611907576040517f08c379a00000000000000000000000000000000000000000000000000000000081526004016118fe90612e50565b60405180910390fd5b505050565b505050565b505050565b60006119378473ffffffffffffffffffffffffffffffffffffffff16611c87565b15611aa0578373ffffffffffffffffffffffffffffffffffffffff1663150b7a026119606112a1565b8786866040518563ffffffff1660e01b81526004016119829493929190612ec5565b602060405180830381600087803b15801561199c57600080fd5b505af19250505080156119cd57506040513d601f19601f820116820180604052508101906119ca9190612f26565b60015b611a50573d80600081146119fd576040519150601f19603f3d011682016040523d82523d6000602084013e611a02565b606091505b50600081511415611a48576040517f08c379a0000000000000000000000000000000000000000000000000000000008152600401611a3f90612e50565b60405180910390fd5b805181602001fd5b63150b7a0260e01b7bffffffffffffffffffffffffffffffffffffffffffffffffffffffff1916817bffffffffffffffffffffffffffffffffffffffffffffffffffffffff191614915050611aa5565b600190505b949350505050565b600073ffffffffffffffffffffffffffffffffffffffff168273ffffffffffffffffffffffffffffffffffffffff161415611b1d576040517f08c379a0000000000000000000000000000000000000000000000000000000008152600401611b1490612f9f565b60405180910390fd5b611b2681611845565b15611b66576040517f08c379a0000000000000000000000000000000000000000000000000000000008152600401611b5d9061300b565b60405180910390fd5b611b726000838361190c565b6001600360008473ffffffffffffffffffffffffffffffffffffffff1673ffffffffffffffffffffffffffffffffffffffff1681526020019081526020016000206000828254611bc29190612598565b92505081905550816002600083815260200190815260200160002060006101000a81548173ffffffffffffffffffffffffffffffffffffffff021916908373ffffffffffffffffffffffffffffffffffffffff160217905550808273ffffffffffffffffffffffffffffffffffffffff16600073ffffffffffffffffffffffffffffffffffffffff167fddf252ad1be2c89b69c2b068fc378daa952ba7f163c4a11628f55a4df523b3ef60405160405180910390a4611c8360008383611911565b5050565b6000808273ffffffffffffffffffffffffffffffffffffffff163b119050919050565b6000604051905090565b600080fd5b600080fd5b60007fffffffff0000000000000000000000000000000000000000000000000000000082169050919050565b611cf381611cbe565b8114611cfe57600080fd5b50565b600081359050611d1081611cea565b92915050565b600060208284031215611d2c57611d2b611cb4565b5b6000611d3a84828501611d01565b91505092915050565b60008115159050919050565b611d5881611d43565b82525050565b6000602082019050611d736000830184611d4f565b92915050565b600081519050919050565b600082825260208201905092915050565b60005b83811015611db3578082015181840152602081019050611d98565b83811115611dc2576000848401525b50505050565b6000601f19601f8301169050919050565b6000611de482611d79565b611dee8185611d84565b9350611dfe818560208601611d95565b611e0781611dc8565b840191505092915050565b60006020820190508181036000830152611e2c8184611dd9565b905092915050565b6000819050919050565b611e4781611e34565b8114611e5257600080fd5b50565b600081359050611e6481611e3e565b92915050565b600060208284031215611e8057611e7f611cb4565b5b6000611e8e84828501611e55565b91505092915050565b600073ffffffffffffffffffffffffffffffffffffffff82169050919050565b6000611ec282611e97565b9050919050565b611ed281611eb7565b82525050565b6000602082019050611eed6000830184611ec9565b92915050565b611efc81611eb7565b8114611f0757600080fd5b50565b600081359050611f1981611ef3565b92915050565b60008060408385031215611f3657611f35611cb4565b5b6000611f4485828601611f0a565b9250506020611f5585828601611e55565b9150509250929050565b6000819050919050565b611f7281611f5f565b8114611f7d57600080fd5b50565b600081359050611f8f81611f69565b92915050565b600060208284031215611fab57611faa611cb4565b5b6000611fb984828501611f80565b91505092915050565b600080600060608486031215611fdb57611fda611cb4565b5b6000611fe986828701611f0a565b9350506020611ffa86828701611f0a565b925050604061200b86828701611e55565b9150509250925092565b600080fd5b600080fd5b7f4e487b7100000000000000000000000000000000000000000000000000000000600052604160045260246000fd5b61205782611dc8565b810181811067ffffffffffffffff821117156120765761207561201f565b5b80604052505050565b6000612089611caa565b9050612095828261204e565b919050565b600067ffffffffffffffff8211156120b5576120b461201f565b5b6120be82611dc8565b9050602081019050919050565b82818337600083830152505050565b60006120ed6120e88461209a565b61207f565b9050828152602081018484840111156121095761210861201a565b5b6121148482856120cb565b509392505050565b600082601f83011261213157612130612015565b5b81356121418482602086016120da565b91505092915050565b6000602082840312156121605761215f611cb4565b5b600082013567ffffffffffffffff81111561217e5761217d611cb9565b5b61218a8482850161211c565b91505092915050565b61219c81611e34565b82525050565b60006020820190506121b76000830184612193565b92915050565b6000602082840312156121d3576121d2611cb4565b5b60006121e184828501611f0a565b91505092915050565b6121f381611d43565b81146121fe57600080fd5b50565b600081359050612210816121ea565b92915050565b6000806040838503121561222d5761222c611cb4565b5b600061223b85828601611f0a565b925050602061224c85828601612201565b9150509250929050565b600067ffffffffffffffff8211156122715761227061201f565b5b61227a82611dc8565b9050602081019050919050565b600061229a61229584612256565b61207f565b9050828152602081018484840111156122b6576122b561201a565b5b6122c18482856120cb565b509392505050565b600082601f8301126122de576122dd612015565b5b81356122ee848260208601612287565b91505092915050565b6000806000806080858703121561231157612310611cb4565b5b600061231f87828801611f0a565b945050602061233087828801611f0a565b935050604061234187828801611e55565b925050606085013567ffffffffffffffff81111561236257612361611cb9565b5b61236e878288016122c9565b91505092959194509250565b61238381611f5f565b82525050565b600060208201905061239e600083018461237a565b92915050565b600080604083850312156123bb576123ba611cb4565b5b60006123c985828601611f0a565b92505060206123da85828601611f0a565b9150509250929050565b7f4e487b7100000000000000000000000000000000000000000000000000000000600052602260045260246000fd5b6000600282049050600182168061242b57607f821691505b6020821081141561243f5761243e6123e4565b5b50919050565b7f4552433732313a20617070726f76616c20746f2063757272656e74206f776e6560008201527f7200000000000000000000000000000000000000000000000000000000000000602082015250565b60006124a1602183611d84565b91506124ac82612445565b604082019050919050565b600060208201905081810360008301526124d081612494565b9050919050565b7f4552433732313a20617070726f76652063616c6c6572206973206e6f7420746f60008201527f6b656e206f776e6572206e6f7220617070726f76656420666f7220616c6c0000602082015250565b6000612533603e83611d84565b915061253e826124d7565b604082019050919050565b6000602082019050818103600083015261256281612526565b9050919050565b7f4e487b7100000000000000000000000000000000000000000000000000000000600052601160045260246000fd5b60006125a382611e34565b91506125ae83611e34565b9250827fffffffffffffffffffffffffffffffffffffffffffffffffffffffffffffffff038211156125e3576125e2612569565b5b828201905092915050565b7f4552433732313a2063616c6c6572206973206e6f7420746f6b656e206f776e6560008201527f72206e6f7220617070726f766564000000000000000000000000000000000000602082015250565b600061264a602e83611d84565b9150612655826125ee565b604082019050919050565b600060208201905081810360008301526126798161263d565b9050919050565b600081905092915050565b600061269682611d79565b6126a08185612680565b93506126b0818560208601611d95565b80840191505092915050565b60006126c8828461268b565b915081905092915050565b60006126df828561268b565b91506126eb828461268b565b91508190509392505050565b7f4552433732313a20696e76616c696420746f6b656e2049440000000000000000600082015250565b600061272d601883611d84565b9150612738826126f7565b602082019050919050565b6000602082019050818103600083015261275c81612720565b9050919050565b7f4552433732313a2061646472657373207a65726f206973206e6f74206120766160008201527f6c6964206f776e65720000000000000000000000000000000000000000000000602082015250565b60006127bf602983611d84565b91506127ca82612763565b604082019050919050565b600060208201905081810360008301526127ee816127b2565b9050919050565b7f55524920517561727920666f72206e6f6e6578697374656e7420746f6b656e00600082015250565b600061282b601f83611d84565b9150612836826127f5565b602082019050919050565b6000602082019050818103600083015261285a8161281e565b9050919050565b7f7b226e616d65223a220000000000000000000000000000000000000000000000600082015250565b6000612897600983612680565b91506128a282612861565b600982019050919050565b7f222c2022646573637472697074696f6e223a22416e204e46542074686174206360008201527f68616e676573206261736564206f6e2074686520436861696e6c696e6b20466560208201527f6564222c20000000000000000000000000000000000000000000000000000000604082015250565b600061292f604583612680565b915061293a826128ad565b604582019050919050565b7f2261747472696275746573223a205b7b2274726169745f74797065223a22636f60008201527f6f6c6e657373222c202276616c7565223a3130307d5d2c2022696d616765223a60208201527f2200000000000000000000000000000000000000000000000000000000000000604082015250565b60006129c7604183612680565b91506129d282612945565b604182019050919050565b7f227d000000000000000000000000000000000000000000000000000000000000600082015250565b6000612a13600283612680565b9150612a1e826129dd565b600282019050919050565b6000612a348261288a565b9150612a40828561268b565b9150612a4b82612922565b9150612a56826129ba565b9150612a62828461268b565b9150612a6d82612a06565b91508190509392505050565b600069ffffffffffffffffffff82169050919050565b612a9881612a79565b8114612aa357600080fd5b50565b600081519050612ab581612a8f565b92915050565b600081519050612aca81611f69565b92915050565b600081519050612adf81611e3e565b92915050565b600080600080600060a08688031215612b0157612b00611cb4565b5b6000612b0f88828901612aa6565b9550506020612b2088828901612abb565b9450506040612b3188828901612ad0565b9350506060612b4288828901612ad0565b9250506080612b5388828901612aa6565b9150509295509295909350565b7f4e487b7100000000000000000000000000000000000000000000000000000000600052601260045260246000fd5b6000612b9a82611e34565b9150612ba583611e34565b925082612bb557612bb4612b60565b5b828204905092915050565b6000612bcb82611e34565b9150612bd683611e34565b9250817fffffffffffffffffffffffffffffffffffffffffffffffffffffffffffffffff0483118215151615612c0f57612c0e612569565b5b828202905092915050565b7f4552433732313a207472616e736665722066726f6d20696e636f72726563742060008201527f6f776e6572000000000000000000000000000000000000000000000000000000602082015250565b6000612c76602583611d84565b9150612c8182612c1a565b604082019050919050565b60006020820190508181036000830152612ca581612c69565b9050919050565b7f4552433732313a207472616e7366657220746f20746865207a65726f2061646460008201527f7265737300000000000000000000000000000000000000000000000000000000602082015250565b6000612d08602483611d84565b9150612d1382612cac565b604082019050919050565b60006020820190508181036000830152612d3781612cfb565b9050919050565b6000612d4982611e34565b9150612d5483611e34565b925082821015612d6757612d66612569565b5b828203905092915050565b7f4552433732313a20617070726f766520746f2063616c6c657200000000000000600082015250565b6000612da8601983611d84565b9150612db382612d72565b602082019050919050565b60006020820190508181036000830152612dd781612d9b565b9050919050565b7f4552433732313a207472616e7366657220746f206e6f6e20455243373231526560008201527f63656976657220696d706c656d656e7465720000000000000000000000000000602082015250565b6000612e3a603283611d84565b9150612e4582612dde565b604082019050919050565b60006020820190508181036000830152612e6981612e2d565b9050919050565b600081519050919050565b600082825260208201905092915050565b6000612e9782612e70565b612ea18185612e7b565b9350612eb1818560208601611d95565b612eba81611dc8565b840191505092915050565b6000608082019050612eda6000830187611ec9565b612ee76020830186611ec9565b612ef46040830185612193565b8181036060830152612f068184612e8c565b905095945050505050565b600081519050612f2081611cea565b92915050565b600060208284031215612f3c57612f3b611cb4565b5b6000612f4a84828501612f11565b91505092915050565b7f4552433732313a206d696e7420746f20746865207a65726f2061646472657373600082015250565b6000612f89602083611d84565b9150612f9482612f53565b602082019050919050565b60006020820190508181036000830152612fb881612f7c565b9050919050565b7f4552433732313a20746f6b656e20616c7265616479206d696e74656400000000600082015250565b6000612ff5601c83611d84565b915061300082612fbf565b602082019050919050565b6000602082019050818103600083015261302481612fe8565b905091905056fe4142434445464748494a4b4c4d4e4f505152535455565758595a6162636465666768696a6b6c6d6e6f707172737475767778797a303132333435363738392b2fa26469706673582212205704b3db9ac4747d8d168c6958311f12204992d48cdcf829d38634d72a95025264736f6c634300080900334142434445464748494a4b4c4d4e4f505152535455565758595a6162636465666768696a6b6c6d6e6f707172737475767778797a303132333435363738392b2f",
  "devdoc": {
    "kind": "dev",
    "methods": {
      "approve(address,uint256)": {
        "details": "See {IERC721-approve}."
      },
      "balanceOf(address)": {
        "details": "See {IERC721-balanceOf}."
      },
      "getApproved(uint256)": {
        "details": "See {IERC721-getApproved}."
      },
      "isApprovedForAll(address,address)": {
        "details": "See {IERC721-isApprovedForAll}."
      },
      "name()": {
        "details": "See {IERC721Metadata-name}."
      },
      "ownerOf(uint256)": {
        "details": "See {IERC721-ownerOf}."
      },
      "safeTransferFrom(address,address,uint256)": {
        "details": "See {IERC721-safeTransferFrom}."
      },
      "safeTransferFrom(address,address,uint256,bytes)": {
        "details": "See {IERC721-safeTransferFrom}."
      },
      "setApprovalForAll(address,bool)": {
        "details": "See {IERC721-setApprovalForAll}."
      },
      "supportsInterface(bytes4)": {
        "details": "See {IERC165-supportsInterface}."
      },
      "symbol()": {
        "details": "See {IERC721Metadata-symbol}."
      },
      "tokenURI(uint256)": {
        "details": "See {IERC721Metadata-tokenURI}."
      },
      "transferFrom(address,address,uint256)": {
        "details": "See {IERC721-transferFrom}."
      }
    },
    "version": 1
  },
  "userdoc": {
    "kind": "user",
    "methods": {},
    "version": 1
  },
  "storageLayout": {
    "storage": [
      {
        "astId": 1694,
        "contract": "contracts/DynamicSvgNft.sol:DynamicSvgNft",
        "label": "_name",
        "offset": 0,
        "slot": "0",
        "type": "t_string_storage"
      },
      {
        "astId": 1696,
        "contract": "contracts/DynamicSvgNft.sol:DynamicSvgNft",
        "label": "_symbol",
        "offset": 0,
        "slot": "1",
        "type": "t_string_storage"
      },
      {
        "astId": 1700,
        "contract": "contracts/DynamicSvgNft.sol:DynamicSvgNft",
        "label": "_owners",
        "offset": 0,
        "slot": "2",
        "type": "t_mapping(t_uint256,t_address)"
      },
      {
        "astId": 1704,
        "contract": "contracts/DynamicSvgNft.sol:DynamicSvgNft",
        "label": "_balances",
        "offset": 0,
        "slot": "3",
        "type": "t_mapping(t_address,t_uint256)"
      },
      {
        "astId": 1708,
        "contract": "contracts/DynamicSvgNft.sol:DynamicSvgNft",
        "label": "_tokenApprovals",
        "offset": 0,
        "slot": "4",
        "type": "t_mapping(t_uint256,t_address)"
      },
      {
        "astId": 1714,
        "contract": "contracts/DynamicSvgNft.sol:DynamicSvgNft",
        "label": "_operatorApprovals",
        "offset": 0,
        "slot": "5",
        "type": "t_mapping(t_address,t_mapping(t_address,t_bool))"
      },
      {
        "astId": 3580,
        "contract": "contracts/DynamicSvgNft.sol:DynamicSvgNft",
        "label": "s_tokenCounter",
        "offset": 0,
        "slot": "6",
        "type": "t_uint256"
      },
      {
        "astId": 3582,
        "contract": "contracts/DynamicSvgNft.sol:DynamicSvgNft",
        "label": "i_lowImageURI",
        "offset": 0,
        "slot": "7",
        "type": "t_string_storage"
      },
      {
        "astId": 3584,
        "contract": "contracts/DynamicSvgNft.sol:DynamicSvgNft",
        "label": "i_highImageURI",
        "offset": 0,
        "slot": "8",
        "type": "t_string_storage"
      },
      {
        "astId": 3597,
        "contract": "contracts/DynamicSvgNft.sol:DynamicSvgNft",
        "label": "s_tokenIdToHighValue",
        "offset": 0,
        "slot": "9",
        "type": "t_mapping(t_uint256,t_int256)"
      }
    ],
    "types": {
      "t_address": {
        "encoding": "inplace",
        "label": "address",
        "numberOfBytes": "20"
      },
      "t_bool": {
        "encoding": "inplace",
        "label": "bool",
        "numberOfBytes": "1"
      },
      "t_int256": {
        "encoding": "inplace",
        "label": "int256",
        "numberOfBytes": "32"
      },
      "t_mapping(t_address,t_bool)": {
        "encoding": "mapping",
        "key": "t_address",
        "label": "mapping(address => bool)",
        "numberOfBytes": "32",
        "value": "t_bool"
      },
      "t_mapping(t_address,t_mapping(t_address,t_bool))": {
        "encoding": "mapping",
        "key": "t_address",
        "label": "mapping(address => mapping(address => bool))",
        "numberOfBytes": "32",
        "value": "t_mapping(t_address,t_bool)"
      },
      "t_mapping(t_address,t_uint256)": {
        "encoding": "mapping",
        "key": "t_address",
        "label": "mapping(address => uint256)",
        "numberOfBytes": "32",
        "value": "t_uint256"
      },
      "t_mapping(t_uint256,t_address)": {
        "encoding": "mapping",
        "key": "t_uint256",
        "label": "mapping(uint256 => address)",
        "numberOfBytes": "32",
        "value": "t_address"
      },
      "t_mapping(t_uint256,t_int256)": {
        "encoding": "mapping",
        "key": "t_uint256",
        "label": "mapping(uint256 => int256)",
        "numberOfBytes": "32",
        "value": "t_int256"
      },
      "t_string_storage": {
        "encoding": "bytes",
        "label": "string",
        "numberOfBytes": "32"
      },
      "t_uint256": {
        "encoding": "inplace",
        "label": "uint256",
        "numberOfBytes": "32"
      }
    }
  }
}