{
  "address": "0x9adb340F1bE4e4e87AD8C4bb71dA760E724Fa4A2",
  "abi": [
    {
      "inputs": [
        {
          "internalType": "address",
          "name": "vrfCoordinator",
          "type": "address"
        },
        {
          "internalType": "uint64",
          "name": "subscriptionId",
          "type": "uint64"
        },
        {
          "internalType": "bytes32",
          "name": "gasLane",
          "type": "bytes32"
        },
        {
          "internalType": "uint32",
          "name": "callbackGasLimit",
          "type": "uint32"
        },
        {
          "internalType": "string[3]",
          "name": "dogTokenUris",
          "type": "string[3]"
        },
        {
          "internalType": "uint256",
          "name": "mintFee",
          "type": "uint256"
        }
      ],
      "stateMutability": "nonpayable",
      "type": "constructor"
    },
    {
      "inputs": [
        {
          "internalType": "address",
          "name": "have",
          "type": "address"
        },
        {
          "internalType": "address",
          "name": "want",
          "type": "address"
        }
      ],
      "name": "OnlyCoordinatorCanFulfill",
      "type": "error"
    },
    {
      "inputs": [],
      "name": "RandomIpfsNft__NeedMoreETHSent",
      "type": "error"
    },
    {
      "inputs": [],
      "name": "RandomIpfsNft__RangeOutOfBounds",
      "type": "error"
    },
    {
      "inputs": [],
      "name": "RandomIpfsNft__TransferFaild",
      "type": "error"
    },
    {
      "anonymous": false,
      "inputs": [
        {
          "indexed": true,
          "internalType": "address",
          "name": "owner",
          "type": "address"
        },
        {
          "indexed": true,
          "internalType": "address",
          "name": "approved",
          "type": "address"
        },
        {
          "indexed": true,
          "internalType": "uint256",
          "name": "tokenId",
          "type": "uint256"
        }
      ],
      "name": "Approval",
      "type": "event"
    },
    {
      "anonymous": false,
      "inputs": [
        {
          "indexed": true,
          "internalType": "address",
          "name": "owner",
          "type": "address"
        },
        {
          "indexed": true,
          "internalType": "address",
          "name": "operator",
          "type": "address"
        },
        {
          "indexed": false,
          "internalType": "bool",
          "name": "approved",
          "type": "bool"
        }
      ],
      "name": "ApprovalForAll",
      "type": "event"
    },
    {
      "anonymous": false,
      "inputs": [
        {
          "indexed": false,
          "internalType": "enum RandomIpfsNft.Breed",
          "name": "dogBreed",
          "type": "uint8"
        },
        {
          "indexed": false,
          "internalType": "address",
          "name": "minter",
          "type": "address"
        }
      ],
      "name": "NftMinted",
      "type": "event"
    },
    {
      "anonymous": false,
      "inputs": [
        {
          "indexed": true,
          "internalType": "uint256",
          "name": "requestId",
          "type": "uint256"
        },
        {
          "indexed": false,
          "internalType": "address",
          "name": "requester",
          "type": "address"
        }
      ],
      "name": "NftRequested",
      "type": "event"
    },
    {
      "anonymous": false,
      "inputs": [
        {
          "indexed": true,
          "internalType": "address",
          "name": "previousOwner",
          "type": "address"
        },
        {
          "indexed": true,
          "internalType": "address",
          "name": "newOwner",
          "type": "address"
        }
      ],
      "name": "OwnershipTransferred",
      "type": "event"
    },
    {
      "anonymous": false,
      "inputs": [
        {
          "indexed": true,
          "internalType": "address",
          "name": "from",
          "type": "address"
        },
        {
          "indexed": true,
          "internalType": "address",
          "name": "to",
          "type": "address"
        },
        {
          "indexed": true,
          "internalType": "uint256",
          "name": "tokenId",
          "type": "uint256"
        }
      ],
      "name": "Transfer",
      "type": "event"
    },
    {
      "inputs": [
        {
          "internalType": "address",
          "name": "to",
          "type": "address"
        },
        {
          "internalType": "uint256",
          "name": "tokenId",
          "type": "uint256"
        }
      ],
      "name": "approve",
      "outputs": [],
      "stateMutability": "nonpayable",
      "type": "function"
    },
    {
      "inputs": [
        {
          "internalType": "address",
          "name": "owner",
          "type": "address"
        }
      ],
      "name": "balanceOf",
      "outputs": [
        {
          "internalType": "uint256",
          "name": "",
          "type": "uint256"
        }
      ],
      "stateMutability": "view",
      "type": "function"
    },
    {
      "inputs": [
        {
          "internalType": "uint256",
          "name": "tokenId",
          "type": "uint256"
        }
      ],
      "name": "getApproved",
      "outputs": [
        {
          "internalType": "address",
          "name": "",
          "type": "address"
        }
      ],
      "stateMutability": "view",
      "type": "function"
    },
    {
      "inputs": [
        {
          "internalType": "uint256",
          "name": "moddedRng",
          "type": "uint256"
        }
      ],
      "name": "getBreedFromModdedRng",
      "outputs": [
        {
          "internalType": "enum RandomIpfsNft.Breed",
          "name": "",
          "type": "uint8"
        }
      ],
      "stateMutability": "pure",
      "type": "function"
    },
    {
      "inputs": [],
      "name": "getChanceArray",
      "outputs": [
        {
          "internalType": "uint256[3]",
          "name": "",
          "type": "uint256[3]"
        }
      ],
      "stateMutability": "pure",
      "type": "function"
    },
    {
      "inputs": [],
      "name": "getGasLane",
      "outputs": [
        {
          "internalType": "bytes32",
          "name": "",
          "type": "bytes32"
        }
      ],
      "stateMutability": "view",
      "type": "function"
    },
    {
      "inputs": [],
      "name": "getMaxChance",
      "outputs": [
        {
          "internalType": "uint256",
          "name": "",
          "type": "uint256"
        }
      ],
      "stateMutability": "pure",
      "type": "function"
    },
    {
      "inputs": [],
      "name": "getMintFee",
      "outputs": [
        {
          "internalType": "uint256",
          "name": "",
          "type": "uint256"
        }
      ],
      "stateMutability": "view",
      "type": "function"
    },
    {
      "inputs": [],
      "name": "getTokenCounter",
      "outputs": [
        {
          "internalType": "uint256",
          "name": "",
          "type": "uint256"
        }
      ],
      "stateMutability": "view",
      "type": "function"
    },
    {
      "inputs": [],
      "name": "getVrfCoordinatorAddress",
      "outputs": [
        {
          "internalType": "address",
          "name": "",
          "type": "address"
        }
      ],
      "stateMutability": "view",
      "type": "function"
    },
    {
      "inputs": [
        {
          "internalType": "address",
          "name": "owner",
          "type": "address"
        },
        {
          "internalType": "address",
          "name": "operator",
          "type": "address"
        }
      ],
      "name": "isApprovedForAll",
      "outputs": [
        {
          "internalType": "bool",
          "name": "",
          "type": "bool"
        }
      ],
      "stateMutability": "view",
      "type": "function"
    },
    {
      "inputs": [],
      "name": "mintNft",
      "outputs": [
        {
          "internalType": "uint256",
          "name": "requestId",
          "type": "uint256"
        }
      ],
      "stateMutability": "payable",
      "type": "function"
    },
    {
      "inputs": [],
      "name": "name",
      "outputs": [
        {
          "internalType": "string",
          "name": "",
          "type": "string"
        }
      ],
      "stateMutability": "view",
      "type": "function"
    },
    {
      "inputs": [],
      "name": "owner",
      "outputs": [
        {
          "internalType": "address",
          "name": "",
          "type": "address"
        }
      ],
      "stateMutability": "view",
      "type": "function"
    },
    {
      "inputs": [
        {
          "internalType": "uint256",
          "name": "tokenId",
          "type": "uint256"
        }
      ],
      "name": "ownerOf",
      "outputs": [
        {
          "internalType": "address",
          "name": "",
          "type": "address"
        }
      ],
      "stateMutability": "view",
      "type": "function"
    },
    {
      "inputs": [
        {
          "internalType": "uint256",
          "name": "requestId",
          "type": "uint256"
        },
        {
          "internalType": "uint256[]",
          "name": "randomWords",
          "type": "uint256[]"
        }
      ],
      "name": "rawFulfillRandomWords",
      "outputs": [],
      "stateMutability": "nonpayable",
      "type": "function"
    },
    {
      "inputs": [],
      "name": "renounceOwnership",
      "outputs": [],
      "stateMutability": "nonpayable",
      "type": "function"
    },
    {
      "inputs": [
        {
          "internalType": "uint256",
          "name": "",
          "type": "uint256"
        }
      ],
      "name": "s_requestIdSender",
      "outputs": [
        {
          "internalType": "address",
          "name": "",
          "type": "address"
        }
      ],
      "stateMutability": "view",
      "type": "function"
    },
    {
      "inputs": [],
      "name": "s_tokenCounter",
      "outputs": [
        {
          "internalType": "uint256",
          "name": "",
          "type": "uint256"
        }
      ],
      "stateMutability": "view",
      "type": "function"
    },
    {
      "inputs": [
        {
          "internalType": "address",
          "name": "from",
          "type": "address"
        },
        {
          "internalType": "address",
          "name": "to",
          "type": "address"
        },
        {
          "internalType": "uint256",
          "name": "tokenId",
          "type": "uint256"
        }
      ],
      "name": "safeTransferFrom",
      "outputs": [],
      "stateMutability": "nonpayable",
      "type": "function"
    },
    {
      "inputs": [
        {
          "internalType": "address",
          "name": "from",
          "type": "address"
        },
        {
          "internalType": "address",
          "name": "to",
          "type": "address"
        },
        {
          "internalType": "uint256",
          "name": "tokenId",
          "type": "uint256"
        },
        {
          "internalType": "bytes",
          "name": "data",
          "type": "bytes"
        }
      ],
      "name": "safeTransferFrom",
      "outputs": [],
      "stateMutability": "nonpayable",
      "type": "function"
    },
    {
      "inputs": [
        {
          "internalType": "address",
          "name": "operator",
          "type": "address"
        },
        {
          "internalType": "bool",
          "name": "approved",
          "type": "bool"
        }
      ],
      "name": "setApprovalForAll",
      "outputs": [],
      "stateMutability": "nonpayable",
      "type": "function"
    },
    {
      "inputs": [
        {
          "internalType": "bytes4",
          "name": "interfaceId",
          "type": "bytes4"
        }
      ],
      "name": "supportsInterface",
      "outputs": [
        {
          "internalType": "bool",
          "name": "",
          "type": "bool"
        }
      ],
      "stateMutability": "view",
      "type": "function"
    },
    {
      "inputs": [],
      "name": "symbol",
      "outputs": [
        {
          "internalType": "string",
          "name": "",
          "type": "string"
        }
      ],
      "stateMutability": "view",
      "type": "function"
    },
    {
      "inputs": [
        {
          "internalType": "uint256",
          "name": "index",
          "type": "uint256"
        }
      ],
      "name": "tokenURI",
      "outputs": [
        {
          "internalType": "string",
          "name": "",
          "type": "string"
        }
      ],
      "stateMutability": "view",
      "type": "function"
    },
    {
      "inputs": [
        {
          "internalType": "address",
          "name": "from",
          "type": "address"
        },
        {
          "internalType": "address",
          "name": "to",
          "type": "address"
        },
        {
          "internalType": "uint256",
          "name": "tokenId",
          "type": "uint256"
        }
      ],
      "name": "transferFrom",
      "outputs": [],
      "stateMutability": "nonpayable",
      "type": "function"
    },
    {
      "inputs": [
        {
          "internalType": "address",
          "name": "newOwner",
          "type": "address"
        }
      ],
      "name": "transferOwnership",
      "outputs": [],
      "stateMutability": "nonpayable",
      "type": "function"
    },
    {
      "inputs": [
        {
          "internalType": "address payable",
          "name": "_address",
          "type": "address"
        }
      ],
      "name": "withdraw",
      "outputs": [
        {
          "internalType": "bool",
          "name": "",
          "type": "bool"
        }
      ],
      "stateMutability": "nonpayable",
      "type": "function"
    }
  ],
  "transactionHash": "0x187604cf74ec6fcf819a299d2c175e361610db54d6bbe581840826b93fa9a64e",
  "args": [
    "0x8A753747A1Fa494EC906cE90E9f37563A8AF630e",
    "7410",
    "0xd89b2bf150e3b9e13446986e571fb9cab24b13cea0a43ea20a6049a85cc807cc",
    "500000",
    [
      "ipfs://QmUXGaHr4qqTdqUR1QvAPv9HRvRBufx48daeB2SqBU4rnD",
      "ipfs://QmcJCxPTuJQEkPivv12cPPBUEcWJ15VRy3JMe7oqCekr4f",
      "ipfs://QmbcwpoQwgE9idFpXon2ZbypwCG4UCRYWQscSByKfwXqtu"
    ],
    "10000000000000000"
  ],
  "numDeployments": 1,
  "solcInputHash": "596acbb81e5d4314b5c0ba10e2afc1b4",
  "bytecode": "0x6101206040523480156200001257600080fd5b50604051620040cd380380620040cd8339818101604052810190620000389190620007fd565b6040518060400160405280600f81526020017f52616e646f6d2049504653204e465400000000000000000000000000000000008152506040518060400160405280600381526020017f52494e0000000000000000000000000000000000000000000000000000000000815250878073ffffffffffffffffffffffffffffffffffffffff1660808173ffffffffffffffffffffffffffffffffffffffff1681525050508160009080519060200190620000f292919062000290565b5080600190805190602001906200010b92919062000290565b5050506200012e62000122620001c260201b60201c565b620001ca60201b60201c565b8573ffffffffffffffffffffffffffffffffffffffff1660a08173ffffffffffffffffffffffffffffffffffffffff16815250508360c081815250508467ffffffffffffffff1660e08167ffffffffffffffff16815250508263ffffffff166101008163ffffffff168152505081600a906003620001ae92919062000321565b5080600b819055505050505050506200091d565b600033905090565b6000600760009054906101000a900473ffffffffffffffffffffffffffffffffffffffff16905081600760006101000a81548173ffffffffffffffffffffffffffffffffffffffff021916908373ffffffffffffffffffffffffffffffffffffffff1602179055508173ffffffffffffffffffffffffffffffffffffffff168173ffffffffffffffffffffffffffffffffffffffff167f8be0079c531659141344cd1fd0a4f28419497f9722a3daafe3b4186f6b6457e060405160405180910390a35050565b8280546200029e90620008e7565b90600052602060002090601f016020900481019282620002c257600085556200030e565b82601f10620002dd57805160ff19168380011785556200030e565b828001600101855582156200030e579182015b828111156200030d578251825591602001919060010190620002f0565b5b5090506200031d919062000388565b5090565b82805482825590600052602060002090810192821562000375579160200282015b82811115620003745782518290805190602001906200036392919062000290565b509160200191906001019062000342565b5b509050620003849190620003a7565b5090565b5b80821115620003a357600081600090555060010162000389565b5090565b5b80821115620003cb5760008181620003c19190620003cf565b50600101620003a8565b5090565b508054620003dd90620008e7565b6000825580601f10620003f1575062000412565b601f01602090049060005260206000209081019062000411919062000388565b5b50565b6000604051905090565b600080fd5b600080fd5b600073ffffffffffffffffffffffffffffffffffffffff82169050919050565b6000620004568262000429565b9050919050565b620004688162000449565b81146200047457600080fd5b50565b60008151905062000488816200045d565b92915050565b600067ffffffffffffffff82169050919050565b620004ad816200048e565b8114620004b957600080fd5b50565b600081519050620004cd81620004a2565b92915050565b6000819050919050565b620004e881620004d3565b8114620004f457600080fd5b50565b6000815190506200050881620004dd565b92915050565b600063ffffffff82169050919050565b62000529816200050e565b81146200053557600080fd5b50565b60008151905062000549816200051e565b92915050565b600080fd5b6000601f19601f8301169050919050565b7f4e487b7100000000000000000000000000000000000000000000000000000000600052604160045260246000fd5b6200059f8262000554565b810181811067ffffffffffffffff82111715620005c157620005c062000565565b5b80604052505050565b6000620005d662000415565b9050620005e4828262000594565b919050565b600067ffffffffffffffff82111562000607576200060662000565565b5b602082029050919050565b600080fd5b600080fd5b600067ffffffffffffffff8211156200063a576200063962000565565b5b620006458262000554565b9050602081019050919050565b60005b838110156200067257808201518184015260208101905062000655565b8381111562000682576000848401525b50505050565b60006200069f62000699846200061c565b620005ca565b905082815260208101848484011115620006be57620006bd62000617565b5b620006cb84828562000652565b509392505050565b600082601f830112620006eb57620006ea6200054f565b5b8151620006fd84826020860162000688565b91505092915050565b60006200071d6200071784620005e9565b620005ca565b905080602084028301858111156200073a576200073962000612565b5b835b818110156200078857805167ffffffffffffffff8111156200076357620007626200054f565b5b808601620007728982620006d3565b855260208501945050506020810190506200073c565b5050509392505050565b600082601f830112620007aa57620007a96200054f565b5b6003620007b984828562000706565b91505092915050565b6000819050919050565b620007d781620007c2565b8114620007e357600080fd5b50565b600081519050620007f781620007cc565b92915050565b60008060008060008060c087890312156200081d576200081c6200041f565b5b60006200082d89828a0162000477565b96505060206200084089828a01620004bc565b95505060406200085389828a01620004f7565b94505060606200086689828a0162000538565b935050608087015167ffffffffffffffff8111156200088a576200088962000424565b5b6200089889828a0162000792565b92505060a0620008ab89828a01620007e6565b9150509295509295509295565b7f4e487b7100000000000000000000000000000000000000000000000000000000600052602260045260246000fd5b600060028204905060018216806200090057607f821691505b60208210811415620009175762000916620008b8565b5b50919050565b60805160a05160c05160e051610100516137566200097760003960006110dd015260006110ba015260008181610ff80152611099015260008181610f6e015261105d0152600081816109bd0152610a1101526137566000f3fe6080604052600436106101b75760003560e01c8063715018a6116100ec578063b47620a11161008a578063c2229fea11610064578063c2229fea14610622578063c87b56dd14610640578063e985e9c51461067d578063f2fde38b146106ba576101b7565b8063b47620a1146105a3578063b88d4fde146105ce578063c19dd76b146105f7576101b7565b806395d89b41116100c657806395d89b41146104e7578063a22cb46514610512578063a51cccf31461053b578063a980ac9714610578576101b7565b8063715018a61461047a5780637a5caab3146104915780638da5cb5b146104bc576101b7565b806342842e0e116101595780635dacf5f4116101335780635dacf5f4146103aa5780636352211e146103d55780636e02007d1461041257806370a082311461043d576101b7565b806342842e0e1461030757806346a2733e1461033057806351cff8d91461036d576101b7565b8063095ea7b311610195578063095ea7b3146102615780630b21a83b1461028a5780631fe543e3146102b557806323b872dd146102de576101b7565b806301ffc9a7146101bc57806306fdde03146101f9578063081812fc14610224575b600080fd5b3480156101c857600080fd5b506101e360048036038101906101de919061230f565b6106e3565b6040516101f09190612357565b60405180910390f35b34801561020557600080fd5b5061020e6107c5565b60405161021b919061240b565b60405180910390f35b34801561023057600080fd5b5061024b60048036038101906102469190612463565b610857565b60405161025891906124d1565b60405180910390f35b34801561026d57600080fd5b5061028860048036038101906102839190612518565b61089d565b005b34801561029657600080fd5b5061029f6109b5565b6040516102ac9190612567565b60405180910390f35b3480156102c157600080fd5b506102dc60048036038101906102d791906126ca565b6109bb565b005b3480156102ea57600080fd5b5061030560048036038101906103009190612726565b610a7b565b005b34801561031357600080fd5b5061032e60048036038101906103299190612726565b610adb565b005b34801561033c57600080fd5b5061035760048036038101906103529190612463565b610afb565b60405161036491906124d1565b60405180910390f35b34801561037957600080fd5b50610394600480360381019061038f91906127b7565b610b2e565b6040516103a19190612357565b60405180910390f35b3480156103b657600080fd5b506103bf610bf0565b6040516103cc919061288f565b60405180910390f35b3480156103e157600080fd5b506103fc60048036038101906103f79190612463565b610c1b565b60405161040991906124d1565b60405180910390f35b34801561041e57600080fd5b50610427610ccd565b6040516104349190612567565b60405180910390f35b34801561044957600080fd5b50610464600480360381019061045f91906128aa565b610cd7565b6040516104719190612567565b60405180910390f35b34801561048657600080fd5b5061048f610d8f565b005b34801561049d57600080fd5b506104a6610da3565b6040516104b39190612567565b60405180910390f35b3480156104c857600080fd5b506104d1610dad565b6040516104de91906124d1565b60405180910390f35b3480156104f357600080fd5b506104fc610dd7565b604051610509919061240b565b60405180910390f35b34801561051e57600080fd5b5061053960048036038101906105349190612903565b610e69565b005b34801561054757600080fd5b50610562600480360381019061055d9190612463565b610e7f565b60405161056f91906129ba565b60405180910390f35b34801561058457600080fd5b5061058d610f61565b60405161059a9190612567565b60405180910390f35b3480156105af57600080fd5b506105b8610f6a565b6040516105c591906124d1565b60405180910390f35b3480156105da57600080fd5b506105f560048036038101906105f09190612a8a565b610f92565b005b34801561060357600080fd5b5061060c610ff4565b6040516106199190612b26565b60405180910390f35b61062a61101c565b6040516106379190612567565b60405180910390f35b34801561064c57600080fd5b5061066760048036038101906106629190612463565b611200565b604051610674919061240b565b60405180910390f35b34801561068957600080fd5b506106a4600480360381019061069f9190612b41565b6112b0565b6040516106b19190612357565b60405180910390f35b3480156106c657600080fd5b506106e160048036038101906106dc91906128aa565b611344565b005b60007f80ac58cd000000000000000000000000000000000000000000000000000000007bffffffffffffffffffffffffffffffffffffffffffffffffffffffff1916827bffffffffffffffffffffffffffffffffffffffffffffffffffffffff191614806107ae57507f5b5e139f000000000000000000000000000000000000000000000000000000007bffffffffffffffffffffffffffffffffffffffffffffffffffffffff1916827bffffffffffffffffffffffffffffffffffffffffffffffffffffffff1916145b806107be57506107bd826113c8565b5b9050919050565b6060600080546107d490612bb0565b80601f016020809104026020016040519081016040528092919081815260200182805461080090612bb0565b801561084d5780601f106108225761010080835404028352916020019161084d565b820191906000526020600020905b81548152906001019060200180831161083057829003601f168201915b5050505050905090565b600061086282611432565b6004600083815260200190815260200160002060009054906101000a900473ffffffffffffffffffffffffffffffffffffffff169050919050565b60006108a882610c1b565b90508073ffffffffffffffffffffffffffffffffffffffff168373ffffffffffffffffffffffffffffffffffffffff161415610919576040517f08c379a000000000000000000000000000000000000000000000000000000000815260040161091090612c54565b60405180910390fd5b8073ffffffffffffffffffffffffffffffffffffffff1661093861147d565b73ffffffffffffffffffffffffffffffffffffffff16148061096757506109668161096161147d565b6112b0565b5b6109a6576040517f08c379a000000000000000000000000000000000000000000000000000000000815260040161099d90612ce6565b60405180910390fd5b6109b08383611485565b505050565b60095481565b7f000000000000000000000000000000000000000000000000000000000000000073ffffffffffffffffffffffffffffffffffffffff163373ffffffffffffffffffffffffffffffffffffffff1614610a6d57337f00000000000000000000000000000000000000000000000000000000000000006040517f1cf993f4000000000000000000000000000000000000000000000000000000008152600401610a64929190612d06565b60405180910390fd5b610a77828261153e565b5050565b610a8c610a8661147d565b826116de565b610acb576040517f08c379a0000000000000000000000000000000000000000000000000000000008152600401610ac290612da1565b60405180910390fd5b610ad6838383611773565b505050565b610af683838360405180602001604052806000815250610f92565b505050565b60086020528060005260406000206000915054906101000a900473ffffffffffffffffffffffffffffffffffffffff1681565b6000610b386119da565b600047905060008373ffffffffffffffffffffffffffffffffffffffff1682604051610b6390612df2565b60006040518083038185875af1925050503d8060008114610ba0576040519150601f19603f3d011682016040523d82523d6000602084013e610ba5565b606091505b505090508015610bb9578092505050610beb565b6040517fd9768afe00000000000000000000000000000000000000000000000000000000815260040160405180910390fd5b919050565b610bf86121de565b6040518060600160405280600a8152602001601e81526020016064815250905090565b6000806002600084815260200190815260200160002060009054906101000a900473ffffffffffffffffffffffffffffffffffffffff169050600073ffffffffffffffffffffffffffffffffffffffff168173ffffffffffffffffffffffffffffffffffffffff161415610cc4576040517f08c379a0000000000000000000000000000000000000000000000000000000008152600401610cbb90612e53565b60405180910390fd5b80915050919050565b6000600954905090565b60008073ffffffffffffffffffffffffffffffffffffffff168273ffffffffffffffffffffffffffffffffffffffff161415610d48576040517f08c379a0000000000000000000000000000000000000000000000000000000008152600401610d3f90612ee5565b60405180910390fd5b600360008373ffffffffffffffffffffffffffffffffffffffff1673ffffffffffffffffffffffffffffffffffffffff168152602001908152602001600020549050919050565b610d976119da565b610da16000611a58565b565b6000600b54905090565b6000600760009054906101000a900473ffffffffffffffffffffffffffffffffffffffff16905090565b606060018054610de690612bb0565b80601f0160208091040260200160405190810160405280929190818152602001828054610e1290612bb0565b8015610e5f5780601f10610e3457610100808354040283529160200191610e5f565b820191906000526020600020905b815481529060010190602001808311610e4257829003601f168201915b5050505050905090565b610e7b610e7461147d565b8383611b1e565b5050565b600080600090506000610e90610bf0565b905060005b6003811015610f2957828510158015610ecf5750818160038110610ebc57610ebb612f05565b5b602002015183610ecc9190612f63565b85105b15610ef157806002811115610ee757610ee6612943565b5b9350505050610f5c565b818160038110610f0457610f03612f05565b5b602002015183610f149190612f63565b92508080610f2190612fb9565b915050610e95565b506040517f12806c9d00000000000000000000000000000000000000000000000000000000815260040160405180910390fd5b919050565b60006064905090565b60007f0000000000000000000000000000000000000000000000000000000000000000905090565b610fa3610f9d61147d565b836116de565b610fe2576040517f08c379a0000000000000000000000000000000000000000000000000000000008152600401610fd990612da1565b60405180910390fd5b610fee84848484611c8b565b50505050565b60007f0000000000000000000000000000000000000000000000000000000000000000905090565b6000600b548034101561105b576040517fb90f491000000000000000000000000000000000000000000000000000000000815260040160405180910390fd5b7f000000000000000000000000000000000000000000000000000000000000000073ffffffffffffffffffffffffffffffffffffffff16635d3b1d307f00000000000000000000000000000000000000000000000000000000000000007f000000000000000000000000000000000000000000000000000000000000000060037f000000000000000000000000000000000000000000000000000000000000000060016040518663ffffffff1660e01b815260040161111e959493929190613061565b602060405180830381600087803b15801561113857600080fd5b505af115801561114c573d6000803e3d6000fd5b505050506040513d601f19601f8201168201806040525081019061117091906130c9565b9150336008600084815260200190815260200160002060006101000a81548173ffffffffffffffffffffffffffffffffffffffff021916908373ffffffffffffffffffffffffffffffffffffffff160217905550817ff873236e6cc0ecc5be1a9a35c95ee5b8d1ac4cc7bfef0cc5060391d6cc98e26b336040516111f491906124d1565b60405180910390a25090565b6060600a828154811061121657611215612f05565b5b90600052602060002001805461122b90612bb0565b80601f016020809104026020016040519081016040528092919081815260200182805461125790612bb0565b80156112a45780601f10611279576101008083540402835291602001916112a4565b820191906000526020600020905b81548152906001019060200180831161128757829003601f168201915b50505050509050919050565b6000600560008473ffffffffffffffffffffffffffffffffffffffff1673ffffffffffffffffffffffffffffffffffffffff16815260200190815260200160002060008373ffffffffffffffffffffffffffffffffffffffff1673ffffffffffffffffffffffffffffffffffffffff16815260200190815260200160002060009054906101000a900460ff16905092915050565b61134c6119da565b600073ffffffffffffffffffffffffffffffffffffffff168173ffffffffffffffffffffffffffffffffffffffff1614156113bc576040517f08c379a00000000000000000000000000000000000000000000000000000000081526004016113b390613168565b60405180910390fd5b6113c581611a58565b50565b60007f01ffc9a7000000000000000000000000000000000000000000000000000000007bffffffffffffffffffffffffffffffffffffffffffffffffffffffff1916827bffffffffffffffffffffffffffffffffffffffffffffffffffffffff1916149050919050565b61143b81611ce7565b61147a576040517f08c379a000000000000000000000000000000000000000000000000000000000815260040161147190612e53565b60405180910390fd5b50565b600033905090565b816004600083815260200190815260200160002060006101000a81548173ffffffffffffffffffffffffffffffffffffffff021916908373ffffffffffffffffffffffffffffffffffffffff160217905550808273ffffffffffffffffffffffffffffffffffffffff166114f883610c1b565b73ffffffffffffffffffffffffffffffffffffffff167f8c5be1e5ebec7d5bd14f71427d1e84f3dd0314c0f7b2291e5b200ac8c7c3b92560405160405180910390a45050565b60006008600084815260200190815260200160002060009054906101000a900473ffffffffffffffffffffffffffffffffffffffff16905060006009549050600060648460008151811061159557611594612f05565b5b60200260200101516115a791906131b7565b905060006115b482610e7f565b9050600954600960008282546115ca9190612f63565b925050819055506115db8484611d53565b61169d83600a8360028111156115f4576115f3612943565b5b8154811061160557611604612f05565b5b90600052602060002001805461161a90612bb0565b80601f016020809104026020016040519081016040528092919081815260200182805461164690612bb0565b80156116935780601f1061166857610100808354040283529160200191611693565b820191906000526020600020905b81548152906001019060200180831161167657829003601f168201915b5050505050611d71565b7f8a269f26b688e110e9cbd887d163dab35cae678fa353a0292de532c0cac1ecdc81856040516116ce9291906131e8565b60405180910390a1505050505050565b6000806116ea83610c1b565b90508073ffffffffffffffffffffffffffffffffffffffff168473ffffffffffffffffffffffffffffffffffffffff16148061172c575061172b81856112b0565b5b8061176a57508373ffffffffffffffffffffffffffffffffffffffff1661175284610857565b73ffffffffffffffffffffffffffffffffffffffff16145b91505092915050565b8273ffffffffffffffffffffffffffffffffffffffff1661179382610c1b565b73ffffffffffffffffffffffffffffffffffffffff16146117e9576040517f08c379a00000000000000000000000000000000000000000000000000000000081526004016117e090613283565b60405180910390fd5b600073ffffffffffffffffffffffffffffffffffffffff168273ffffffffffffffffffffffffffffffffffffffff161415611859576040517f08c379a000000000000000000000000000000000000000000000000000000000815260040161185090613315565b60405180910390fd5b611864838383611de5565b61186f600082611485565b6001600360008573ffffffffffffffffffffffffffffffffffffffff1673ffffffffffffffffffffffffffffffffffffffff16815260200190815260200160002060008282546118bf9190613335565b925050819055506001600360008473ffffffffffffffffffffffffffffffffffffffff1673ffffffffffffffffffffffffffffffffffffffff16815260200190815260200160002060008282546119169190612f63565b92505081905550816002600083815260200190815260200160002060006101000a81548173ffffffffffffffffffffffffffffffffffffffff021916908373ffffffffffffffffffffffffffffffffffffffff160217905550808273ffffffffffffffffffffffffffffffffffffffff168473ffffffffffffffffffffffffffffffffffffffff167fddf252ad1be2c89b69c2b068fc378daa952ba7f163c4a11628f55a4df523b3ef60405160405180910390a46119d5838383611dea565b505050565b6119e261147d565b73ffffffffffffffffffffffffffffffffffffffff16611a00610dad565b73ffffffffffffffffffffffffffffffffffffffff1614611a56576040517f08c379a0000000000000000000000000000000000000000000000000000000008152600401611a4d906133b5565b60405180910390fd5b565b6000600760009054906101000a900473ffffffffffffffffffffffffffffffffffffffff16905081600760006101000a81548173ffffffffffffffffffffffffffffffffffffffff021916908373ffffffffffffffffffffffffffffffffffffffff1602179055508173ffffffffffffffffffffffffffffffffffffffff168173ffffffffffffffffffffffffffffffffffffffff167f8be0079c531659141344cd1fd0a4f28419497f9722a3daafe3b4186f6b6457e060405160405180910390a35050565b8173ffffffffffffffffffffffffffffffffffffffff168373ffffffffffffffffffffffffffffffffffffffff161415611b8d576040517f08c379a0000000000000000000000000000000000000000000000000000000008152600401611b8490613421565b60405180910390fd5b80600560008573ffffffffffffffffffffffffffffffffffffffff1673ffffffffffffffffffffffffffffffffffffffff16815260200190815260200160002060008473ffffffffffffffffffffffffffffffffffffffff1673ffffffffffffffffffffffffffffffffffffffff16815260200190815260200160002060006101000a81548160ff0219169083151502179055508173ffffffffffffffffffffffffffffffffffffffff168373ffffffffffffffffffffffffffffffffffffffff167f17307eab39ab6107e8899845ad3d59bd9653f200f220920489ca2b5937696c3183604051611c7e9190612357565b60405180910390a3505050565b611c96848484611773565b611ca284848484611def565b611ce1576040517f08c379a0000000000000000000000000000000000000000000000000000000008152600401611cd8906134b3565b60405180910390fd5b50505050565b60008073ffffffffffffffffffffffffffffffffffffffff166002600084815260200190815260200160002060009054906101000a900473ffffffffffffffffffffffffffffffffffffffff1673ffffffffffffffffffffffffffffffffffffffff1614159050919050565b611d6d828260405180602001604052806000815250611f86565b5050565b611d7a82611ce7565b611db9576040517f08c379a0000000000000000000000000000000000000000000000000000000008152600401611db090613545565b60405180910390fd5b80600660008481526020019081526020016000209080519060200190611de0929190612200565b505050565b505050565b505050565b6000611e108473ffffffffffffffffffffffffffffffffffffffff16611fe1565b15611f79578373ffffffffffffffffffffffffffffffffffffffff1663150b7a02611e3961147d565b8786866040518563ffffffff1660e01b8152600401611e5b94939291906135ba565b602060405180830381600087803b158015611e7557600080fd5b505af1925050508015611ea657506040513d601f19601f82011682018060405250810190611ea3919061361b565b60015b611f29573d8060008114611ed6576040519150601f19603f3d011682016040523d82523d6000602084013e611edb565b606091505b50600081511415611f21576040517f08c379a0000000000000000000000000000000000000000000000000000000008152600401611f18906134b3565b60405180910390fd5b805181602001fd5b63150b7a0260e01b7bffffffffffffffffffffffffffffffffffffffffffffffffffffffff1916817bffffffffffffffffffffffffffffffffffffffffffffffffffffffff191614915050611f7e565b600190505b949350505050565b611f908383612004565b611f9d6000848484611def565b611fdc576040517f08c379a0000000000000000000000000000000000000000000000000000000008152600401611fd3906134b3565b60405180910390fd5b505050565b6000808273ffffffffffffffffffffffffffffffffffffffff163b119050919050565b600073ffffffffffffffffffffffffffffffffffffffff168273ffffffffffffffffffffffffffffffffffffffff161415612074576040517f08c379a000000000000000000000000000000000000000000000000000000000815260040161206b90613694565b60405180910390fd5b61207d81611ce7565b156120bd576040517f08c379a00000000000000000000000000000000000000000000000000000000081526004016120b490613700565b60405180910390fd5b6120c960008383611de5565b6001600360008473ffffffffffffffffffffffffffffffffffffffff1673ffffffffffffffffffffffffffffffffffffffff16815260200190815260200160002060008282546121199190612f63565b92505081905550816002600083815260200190815260200160002060006101000a81548173ffffffffffffffffffffffffffffffffffffffff021916908373ffffffffffffffffffffffffffffffffffffffff160217905550808273ffffffffffffffffffffffffffffffffffffffff16600073ffffffffffffffffffffffffffffffffffffffff167fddf252ad1be2c89b69c2b068fc378daa952ba7f163c4a11628f55a4df523b3ef60405160405180910390a46121da60008383611dea565b5050565b6040518060600160405280600390602082028036833780820191505090505090565b82805461220c90612bb0565b90600052602060002090601f01602090048101928261222e5760008555612275565b82601f1061224757805160ff1916838001178555612275565b82800160010185558215612275579182015b82811115612274578251825591602001919060010190612259565b5b5090506122829190612286565b5090565b5b8082111561229f576000816000905550600101612287565b5090565b6000604051905090565b600080fd5b600080fd5b60007fffffffff0000000000000000000000000000000000000000000000000000000082169050919050565b6122ec816122b7565b81146122f757600080fd5b50565b600081359050612309816122e3565b92915050565b600060208284031215612325576123246122ad565b5b6000612333848285016122fa565b91505092915050565b60008115159050919050565b6123518161233c565b82525050565b600060208201905061236c6000830184612348565b92915050565b600081519050919050565b600082825260208201905092915050565b60005b838110156123ac578082015181840152602081019050612391565b838111156123bb576000848401525b50505050565b6000601f19601f8301169050919050565b60006123dd82612372565b6123e7818561237d565b93506123f781856020860161238e565b612400816123c1565b840191505092915050565b6000602082019050818103600083015261242581846123d2565b905092915050565b6000819050919050565b6124408161242d565b811461244b57600080fd5b50565b60008135905061245d81612437565b92915050565b600060208284031215612479576124786122ad565b5b60006124878482850161244e565b91505092915050565b600073ffffffffffffffffffffffffffffffffffffffff82169050919050565b60006124bb82612490565b9050919050565b6124cb816124b0565b82525050565b60006020820190506124e660008301846124c2565b92915050565b6124f5816124b0565b811461250057600080fd5b50565b600081359050612512816124ec565b92915050565b6000806040838503121561252f5761252e6122ad565b5b600061253d85828601612503565b925050602061254e8582860161244e565b9150509250929050565b6125618161242d565b82525050565b600060208201905061257c6000830184612558565b92915050565b600080fd5b7f4e487b7100000000000000000000000000000000000000000000000000000000600052604160045260246000fd5b6125bf826123c1565b810181811067ffffffffffffffff821117156125de576125dd612587565b5b80604052505050565b60006125f16122a3565b90506125fd82826125b6565b919050565b600067ffffffffffffffff82111561261d5761261c612587565b5b602082029050602081019050919050565b600080fd5b600061264661264184612602565b6125e7565b905080838252602082019050602084028301858111156126695761266861262e565b5b835b81811015612692578061267e888261244e565b84526020840193505060208101905061266b565b5050509392505050565b600082601f8301126126b1576126b0612582565b5b81356126c1848260208601612633565b91505092915050565b600080604083850312156126e1576126e06122ad565b5b60006126ef8582860161244e565b925050602083013567ffffffffffffffff8111156127105761270f6122b2565b5b61271c8582860161269c565b9150509250929050565b60008060006060848603121561273f5761273e6122ad565b5b600061274d86828701612503565b935050602061275e86828701612503565b925050604061276f8682870161244e565b9150509250925092565b600061278482612490565b9050919050565b61279481612779565b811461279f57600080fd5b50565b6000813590506127b18161278b565b92915050565b6000602082840312156127cd576127cc6122ad565b5b60006127db848285016127a2565b91505092915050565b600060039050919050565b600081905092915050565b6000819050919050565b61280d8161242d565b82525050565b600061281f8383612804565b60208301905092915050565b6000602082019050919050565b612841816127e4565b61284b81846127ef565b9250612856826127fa565b8060005b8381101561288757815161286e8782612813565b96506128798361282b565b92505060018101905061285a565b505050505050565b60006060820190506128a46000830184612838565b92915050565b6000602082840312156128c0576128bf6122ad565b5b60006128ce84828501612503565b91505092915050565b6128e08161233c565b81146128eb57600080fd5b50565b6000813590506128fd816128d7565b92915050565b6000806040838503121561291a576129196122ad565b5b600061292885828601612503565b9250506020612939858286016128ee565b9150509250929050565b7f4e487b7100000000000000000000000000000000000000000000000000000000600052602160045260246000fd5b6003811061298357612982612943565b5b50565b600081905061299482612972565b919050565b60006129a482612986565b9050919050565b6129b481612999565b82525050565b60006020820190506129cf60008301846129ab565b92915050565b600080fd5b600067ffffffffffffffff8211156129f5576129f4612587565b5b6129fe826123c1565b9050602081019050919050565b82818337600083830152505050565b6000612a2d612a28846129da565b6125e7565b905082815260208101848484011115612a4957612a486129d5565b5b612a54848285612a0b565b509392505050565b600082601f830112612a7157612a70612582565b5b8135612a81848260208601612a1a565b91505092915050565b60008060008060808587031215612aa457612aa36122ad565b5b6000612ab287828801612503565b9450506020612ac387828801612503565b9350506040612ad48782880161244e565b925050606085013567ffffffffffffffff811115612af557612af46122b2565b5b612b0187828801612a5c565b91505092959194509250565b6000819050919050565b612b2081612b0d565b82525050565b6000602082019050612b3b6000830184612b17565b92915050565b60008060408385031215612b5857612b576122ad565b5b6000612b6685828601612503565b9250506020612b7785828601612503565b9150509250929050565b7f4e487b7100000000000000000000000000000000000000000000000000000000600052602260045260246000fd5b60006002820490506001821680612bc857607f821691505b60208210811415612bdc57612bdb612b81565b5b50919050565b7f4552433732313a20617070726f76616c20746f2063757272656e74206f776e6560008201527f7200000000000000000000000000000000000000000000000000000000000000602082015250565b6000612c3e60218361237d565b9150612c4982612be2565b604082019050919050565b60006020820190508181036000830152612c6d81612c31565b9050919050565b7f4552433732313a20617070726f76652063616c6c6572206973206e6f7420746f60008201527f6b656e206f776e6572206e6f7220617070726f76656420666f7220616c6c0000602082015250565b6000612cd0603e8361237d565b9150612cdb82612c74565b604082019050919050565b60006020820190508181036000830152612cff81612cc3565b9050919050565b6000604082019050612d1b60008301856124c2565b612d2860208301846124c2565b9392505050565b7f4552433732313a2063616c6c6572206973206e6f7420746f6b656e206f776e6560008201527f72206e6f7220617070726f766564000000000000000000000000000000000000602082015250565b6000612d8b602e8361237d565b9150612d9682612d2f565b604082019050919050565b60006020820190508181036000830152612dba81612d7e565b9050919050565b600081905092915050565b50565b6000612ddc600083612dc1565b9150612de782612dcc565b600082019050919050565b6000612dfd82612dcf565b9150819050919050565b7f4552433732313a20696e76616c696420746f6b656e2049440000000000000000600082015250565b6000612e3d60188361237d565b9150612e4882612e07565b602082019050919050565b60006020820190508181036000830152612e6c81612e30565b9050919050565b7f4552433732313a2061646472657373207a65726f206973206e6f74206120766160008201527f6c6964206f776e65720000000000000000000000000000000000000000000000602082015250565b6000612ecf60298361237d565b9150612eda82612e73565b604082019050919050565b60006020820190508181036000830152612efe81612ec2565b9050919050565b7f4e487b7100000000000000000000000000000000000000000000000000000000600052603260045260246000fd5b7f4e487b7100000000000000000000000000000000000000000000000000000000600052601160045260246000fd5b6000612f6e8261242d565b9150612f798361242d565b9250827fffffffffffffffffffffffffffffffffffffffffffffffffffffffffffffffff03821115612fae57612fad612f34565b5b828201905092915050565b6000612fc48261242d565b91507fffffffffffffffffffffffffffffffffffffffffffffffffffffffffffffffff821415612ff757612ff6612f34565b5b600182019050919050565b600067ffffffffffffffff82169050919050565b61301f81613002565b82525050565b600061ffff82169050919050565b61303c81613025565b82525050565b600063ffffffff82169050919050565b61305b81613042565b82525050565b600060a0820190506130766000830188612b17565b6130836020830187613016565b6130906040830186613033565b61309d6060830185613052565b6130aa6080830184613052565b9695505050505050565b6000815190506130c381612437565b92915050565b6000602082840312156130df576130de6122ad565b5b60006130ed848285016130b4565b91505092915050565b7f4f776e61626c653a206e6577206f776e657220697320746865207a65726f206160008201527f6464726573730000000000000000000000000000000000000000000000000000602082015250565b600061315260268361237d565b915061315d826130f6565b604082019050919050565b6000602082019050818103600083015261318181613145565b9050919050565b7f4e487b7100000000000000000000000000000000000000000000000000000000600052601260045260246000fd5b60006131c28261242d565b91506131cd8361242d565b9250826131dd576131dc613188565b5b828206905092915050565b60006040820190506131fd60008301856129ab565b61320a60208301846124c2565b9392505050565b7f4552433732313a207472616e736665722066726f6d20696e636f72726563742060008201527f6f776e6572000000000000000000000000000000000000000000000000000000602082015250565b600061326d60258361237d565b915061327882613211565b604082019050919050565b6000602082019050818103600083015261329c81613260565b9050919050565b7f4552433732313a207472616e7366657220746f20746865207a65726f2061646460008201527f7265737300000000000000000000000000000000000000000000000000000000602082015250565b60006132ff60248361237d565b915061330a826132a3565b604082019050919050565b6000602082019050818103600083015261332e816132f2565b9050919050565b60006133408261242d565b915061334b8361242d565b92508282101561335e5761335d612f34565b5b828203905092915050565b7f4f776e61626c653a2063616c6c6572206973206e6f7420746865206f776e6572600082015250565b600061339f60208361237d565b91506133aa82613369565b602082019050919050565b600060208201905081810360008301526133ce81613392565b9050919050565b7f4552433732313a20617070726f766520746f2063616c6c657200000000000000600082015250565b600061340b60198361237d565b9150613416826133d5565b602082019050919050565b6000602082019050818103600083015261343a816133fe565b9050919050565b7f4552433732313a207472616e7366657220746f206e6f6e20455243373231526560008201527f63656976657220696d706c656d656e7465720000000000000000000000000000602082015250565b600061349d60328361237d565b91506134a882613441565b604082019050919050565b600060208201905081810360008301526134cc81613490565b9050919050565b7f45524337323155524953746f726167653a2055524920736574206f66206e6f6e60008201527f6578697374656e7420746f6b656e000000000000000000000000000000000000602082015250565b600061352f602e8361237d565b915061353a826134d3565b604082019050919050565b6000602082019050818103600083015261355e81613522565b9050919050565b600081519050919050565b600082825260208201905092915050565b600061358c82613565565b6135968185613570565b93506135a681856020860161238e565b6135af816123c1565b840191505092915050565b60006080820190506135cf60008301876124c2565b6135dc60208301866124c2565b6135e96040830185612558565b81810360608301526135fb8184613581565b905095945050505050565b600081519050613615816122e3565b92915050565b600060208284031215613631576136306122ad565b5b600061363f84828501613606565b91505092915050565b7f4552433732313a206d696e7420746f20746865207a65726f2061646472657373600082015250565b600061367e60208361237d565b915061368982613648565b602082019050919050565b600060208201905081810360008301526136ad81613671565b9050919050565b7f4552433732313a20746f6b656e20616c7265616479206d696e74656400000000600082015250565b60006136ea601c8361237d565b91506136f5826136b4565b602082019050919050565b60006020820190508181036000830152613719816136dd565b905091905056fea264697066735822122035dfc95a8b3a4a5a3bb6eb7c27fb171c08d571976ecedeeb11ebc2769796629164736f6c63430008090033",
  "devdoc": {
    "kind": "dev",
    "methods": {
      "approve(address,uint256)": {
        "details": "See {IERC721-approve}."
      },
      "balanceOf(address)": {
        "details": "See {IERC721-balanceOf}."
      },
      "getApproved(uint256)": {
        "details": "See {IERC721-getApproved}."
      },
      "isApprovedForAll(address,address)": {
        "details": "See {IERC721-isApprovedForAll}."
      },
      "name()": {
        "details": "See {IERC721Metadata-name}."
      },
      "owner()": {
        "details": "Returns the address of the current owner."
      },
      "ownerOf(uint256)": {
        "details": "See {IERC721-ownerOf}."
      },
      "renounceOwnership()": {
        "details": "Leaves the contract without owner. It will not be possible to call `onlyOwner` functions anymore. Can only be called by the current owner. NOTE: Renouncing ownership will leave the contract without an owner, thereby removing any functionality that is only available to the owner."
      },
      "safeTransferFrom(address,address,uint256)": {
        "details": "See {IERC721-safeTransferFrom}."
      },
      "safeTransferFrom(address,address,uint256,bytes)": {
        "details": "See {IERC721-safeTransferFrom}."
      },
      "setApprovalForAll(address,bool)": {
        "details": "See {IERC721-setApprovalForAll}."
      },
      "supportsInterface(bytes4)": {
        "details": "See {IERC165-supportsInterface}."
      },
      "symbol()": {
        "details": "See {IERC721Metadata-symbol}."
      },
      "transferFrom(address,address,uint256)": {
        "details": "See {IERC721-transferFrom}."
      },
      "transferOwnership(address)": {
        "details": "Transfers ownership of the contract to a new account (`newOwner`). Can only be called by the current owner."
      }
    },
    "version": 1
  },
  "userdoc": {
    "kind": "user",
    "methods": {},
    "version": 1
  },
  "storageLayout": {
    "storage": [
      {
        "astId": 1694,
        "contract": "contracts/RandomIpfsNft.sol:RandomIpfsNft",
        "label": "_name",
        "offset": 0,
        "slot": "0",
        "type": "t_string_storage"
      },
      {
        "astId": 1696,
        "contract": "contracts/RandomIpfsNft.sol:RandomIpfsNft",
        "label": "_symbol",
        "offset": 0,
        "slot": "1",
        "type": "t_string_storage"
      },
      {
        "astId": 1700,
        "contract": "contracts/RandomIpfsNft.sol:RandomIpfsNft",
        "label": "_owners",
        "offset": 0,
        "slot": "2",
        "type": "t_mapping(t_uint256,t_address)"
      },
      {
        "astId": 1704,
        "contract": "contracts/RandomIpfsNft.sol:RandomIpfsNft",
        "label": "_balances",
        "offset": 0,
        "slot": "3",
        "type": "t_mapping(t_address,t_uint256)"
      },
      {
        "astId": 1708,
        "contract": "contracts/RandomIpfsNft.sol:RandomIpfsNft",
        "label": "_tokenApprovals",
        "offset": 0,
        "slot": "4",
        "type": "t_mapping(t_uint256,t_address)"
      },
      {
        "astId": 1714,
        "contract": "contracts/RandomIpfsNft.sol:RandomIpfsNft",
        "label": "_operatorApprovals",
        "offset": 0,
        "slot": "5",
        "type": "t_mapping(t_address,t_mapping(t_address,t_bool))"
      },
      {
        "astId": 2682,
        "contract": "contracts/RandomIpfsNft.sol:RandomIpfsNft",
        "label": "_tokenURIs",
        "offset": 0,
        "slot": "6",
        "type": "t_mapping(t_uint256,t_string_storage)"
      },
      {
        "astId": 874,
        "contract": "contracts/RandomIpfsNft.sol:RandomIpfsNft",
        "label": "_owner",
        "offset": 0,
        "slot": "7",
        "type": "t_address"
      },
      {
        "astId": 3872,
        "contract": "contracts/RandomIpfsNft.sol:RandomIpfsNft",
        "label": "s_requestIdSender",
        "offset": 0,
        "slot": "8",
        "type": "t_mapping(t_uint256,t_address)"
      },
      {
        "astId": 3874,
        "contract": "contracts/RandomIpfsNft.sol:RandomIpfsNft",
        "label": "s_tokenCounter",
        "offset": 0,
        "slot": "9",
        "type": "t_uint256"
      },
      {
        "astId": 3880,
        "contract": "contracts/RandomIpfsNft.sol:RandomIpfsNft",
        "label": "s_dogTokenUris",
        "offset": 0,
        "slot": "10",
        "type": "t_array(t_string_storage)dyn_storage"
      },
      {
        "astId": 3882,
        "contract": "contracts/RandomIpfsNft.sol:RandomIpfsNft",
        "label": "i_mintFee",
        "offset": 0,
        "slot": "11",
        "type": "t_uint256"
      }
    ],
    "types": {
      "t_address": {
        "encoding": "inplace",
        "label": "address",
        "numberOfBytes": "20"
      },
      "t_array(t_string_storage)dyn_storage": {
        "base": "t_string_storage",
        "encoding": "dynamic_array",
        "label": "string[]",
        "numberOfBytes": "32"
      },
      "t_bool": {
        "encoding": "inplace",
        "label": "bool",
        "numberOfBytes": "1"
      },
      "t_mapping(t_address,t_bool)": {
        "encoding": "mapping",
        "key": "t_address",
        "label": "mapping(address => bool)",
        "numberOfBytes": "32",
        "value": "t_bool"
      },
      "t_mapping(t_address,t_mapping(t_address,t_bool))": {
        "encoding": "mapping",
        "key": "t_address",
        "label": "mapping(address => mapping(address => bool))",
        "numberOfBytes": "32",
        "value": "t_mapping(t_address,t_bool)"
      },
      "t_mapping(t_address,t_uint256)": {
        "encoding": "mapping",
        "key": "t_address",
        "label": "mapping(address => uint256)",
        "numberOfBytes": "32",
        "value": "t_uint256"
      },
      "t_mapping(t_uint256,t_address)": {
        "encoding": "mapping",
        "key": "t_uint256",
        "label": "mapping(uint256 => address)",
        "numberOfBytes": "32",
        "value": "t_address"
      },
      "t_mapping(t_uint256,t_string_storage)": {
        "encoding": "mapping",
        "key": "t_uint256",
        "label": "mapping(uint256 => string)",
        "numberOfBytes": "32",
        "value": "t_string_storage"
      },
      "t_string_storage": {
        "encoding": "bytes",
        "label": "string",
        "numberOfBytes": "32"
      },
      "t_uint256": {
        "encoding": "inplace",
        "label": "uint256",
        "numberOfBytes": "32"
      }
    }
  }
}